S024000062745F73657269616C5F706F72745F70726F66696C655F7365727665722E733337B1
S31508000000C00A0020451000081BED01081BED010879
S31508000010F10F02081BED01081BED01081BED010895
S315080000201BED01081BED01081BED01081BED01087E
S315080000301BED01081BED01088F1002081BED0108D6
S315080000401BED01081BED01081BED01081BED01085E
S315080000501BED01081BED01081BED01081BED01084E
S315080000601BED01083D0F000879EC01081BED01089E
S315080000701BED01081BED01081BED01081BED01082E
S315080000801BED01081BED01081BED01081BED01081E
S315080000901BED0108D91900081BED01081BED010825
S315080000A01BED010819160008F91500081BED0108D3
S315080000B01BED0108C98D010875980108A78A020871
S315080000C0A38A020805900108BD8A0208AB8A0208BD
S315080000D045980108AF8A0208B598010821990108D0
S315080000E01BED01081BED01081BED01081BED0108BE
S315080000F0ED0802081BED01081BED01081BED0108C0
S315080001001BED01081BED01081BED01081BED01089D
S315080001101BED01081BED01081BED01081BED01088D
S315080001201BED01081BED01081BED01081BED01087D
S315080001301BED01081BED01081BED01081BED01086D
S315080001401BED01081BED01081BED01081BCA02087F
S315080001503D7301081BED0108918A0208978A020877
S315080001601BED01081BED01081BED01081BED01083D
S31508000170F0B5114A114C124E00F00105E3695F070C
S3150800018013D40DB9334213D103EA00078F4207D1BE
S315080001900B4A1A40002A0CBF00206FF00100F0BD80
S315080001A0013AEBD16FF00200F9E74FF0FF30F6E7BE
S315080001B06FF00100F3E700BF809698000000035037
S315080001C0020001000B4B70B5D96911F480310DD1CD
S315080001D001244FF48072084E084DF46020462C64C2
S315080001E01A61FFF7C5FF3464EC6070BD6FF001005B
S315080001F0FBE700BF00000350001003500020035027
S315080002004FF4803238B50E4B0E4C9A66E56941F6C6
S31508000210713315400122E3630B4B0021DA60022398
S31508000220606121202361FFF7A3FF10B92120FFF7A2
S315080002309FFF0122054BDA600DB10023E36338BD49
S315080002400090005000000350001003500020035097
S3150800025070B5134C6061E3695B071ED40E4656F809
S31508000260043B8D18A361AE420BD104230021212043
S315080002702361FFF77DFF58B9BDE870402120FFF7DD
S3150800028077BF08210846FFF773FF10B104232361DF
S3150800029070BD56F8043BA361E5E74FF0FF30F7E77A
S315080002A0000003502DE9F84315464FF48032184BE9
S315080002B089469A6603F51C33DF690646174041F6F8
S315080002C07132DA63012203F58053DFF84C80DA6075
S315080002D055B9284601220F4BDA601FB10022A3F553
S315080002E00053DA63BDE8F88306F5005404EA080407
S315080002F0A41BAC4228BF2C46494622463046FFF787
S31508000300A7FF0028E6D12644A1442D1BE0E700BF3D
S31508000310009000500020035000E0FFFF000000009E
S3150800032000000000000000000000000000000000BF
S31508000330002370B5424C05468AB0E36318B10088BD
S3150800034023600DF0D1FE0EF079F83E4827F0D1FD76
S315080003503D4E3E4B304633603D4B736024F010FEF5
S315080003600021304612F04EFC33A3D3E90023A062E5
S31508000370C4E9062324F00FFED4E9062319431043E3
S31508000380C4E90601CDE900014FF0FF334FF0FF3213
S31508000390A06A27F055FE02224FF0FF31A06A27F027
S315080003A054FE01200DF024FC4FF400730022294965
S315080003B0A06A27F04CFFB0F5007F39D100239422BC
S315080003C0079309933C23CDE90332059396230693B5
S315080003D05023A06A03A9089312F02EFD35B3287C92
S315080003E00EF03EF80546F0B9A06A28F025F80EF09A
S315080003F0C5F80DF0DFFB20B14FF4807000210AF03C
S3150800040039FB0DF0E7FB20B14FF4006000210AF03C
S3150800041031FB24F08BFE012027F03FFD0E4A0F49E1
S31508000420A06A24F0ABFD28460AB070BDFF20D7E7C6
S315080004300725F8E7AFF300800DD501552000000029
S31508000440300B0020690345ECCC1D002029DA000892
S31508000450DC1D0020CC1B0020254F0208654F020832
S315080004600348044B834202D0034B03B11847704735
S31508000470542C0020542C002000000000064B07498D
S31508000480C91A891048BF0131491003D0044B0BB172
S3150800049001481847704700BF542C0020542C0020F0
S315080004A00000000010B5064C237843B9FFF7D8FFC3
S315080004B0044B13B10448AFF300800123237010BD29
S315080004C0A4260020000000000029030808B5054BF3
S315080004D01BB105490548AFF30080BDE80840FFF7A2
S315080004E0CDBF00BF00000000B00D002000290308A2
S315080004F0A3F5803A704700BF174B002B08BF134B74
S315080005009D46FFF7F5FF00218B460F461348144A10
S31508000510121A28F074FB0E4B002B00D098470D4B8F
S31508000520002B00D098470020002104000D000D483C
S31508000530002802D00C48AFF3008019F0B9FD20005E
S3150800054029001EF015FB19F0F1FB00BF000008009A
S315080005500000000000000000C00A0020C00A0020B9
S31508000560E02700200000000000000000FF22054BE5
S3150800057000211A700122044B04481A70142228F02C
S315080005803EBB00BF2A2C0020A6260020D00D002046
S3150800059038B54FF4484019F0DBFB154D154C28606B
S315080005A01EF06CFB1EF06BFB1349206820F0F8F96F
S315080005B02B6893B11EF062FB1EF061FB0F492068A1
S315080005C020F0EEF90023FF2029689AB2B2FBF0F278
S315080005D0CA540133B3F5484FF7D11EF04FFB1EF04E
S315080005E04EFB20680649BDE8384020F0D9B900BF5F
S315080005F0CC0D0020800E002088CA020895CA020881
S31508000600A7CA02082DE9F347424B1B78032B28D1CA
S31508000610414D2B7883B9414B18681EF0B1FB012870
S3150800062004461BD11EF02AFB1EF029FB3C4B3D4914
S31508000630186820F0B5F92C703B4ADFF80C8113686E
S31508000640002B11DC40F60D230222ADF804301B21E5
S3150800065098F8000001AB0FF05FF802E02B78002B4A
S31508000660EAD102B0BDE8F087304C1E462188DFF893
S31508000670B0908B42A8BF0E465B1A13602C4F1EF033
S31508000680FDFA1EF0FCFA22882A49D9F8000020F063
S3150800069087F91EF0F3FA1EF0F2FA32462649D9F81F
S315080006A0000020F07DF91EF0E9FA1EF0E8FA3A6833
S315080006B02249D9F8000020F073F9DFF890A0204C01
S315080006C0DAF800203B681B21134498F800003246EC
S315080006D00FF022F823691A2803F10103054623615E
S315080006E0EED060B11EF0CAFA1EF0C9FA2A461549BC
S315080006F0D9F8000002B0BDE8F04720F051B93B68D0
S3150800070033443B6023680133236063683344636082
S31508000710A7E700BFA6260020A5260020D42900208A
S31508000720800E0020B4CA0208AC2900206C260020DE
S31508000730C80D0020C3CA0208CCCA0208D5CA0208D6
S31508000740D00D0020E7CA02082A2C0020CC0D002074
S31508000750F0B50368AC4A23F47F4323F007039342BA
S31508000760044685B000F0F0810FD8A2F580229342A6
S3150800077000F0768102F54032934200F09B81A2F5A3
S31508000780002293425DD005B0F0BDA04A934200F026
S31508000790838102F18272934200F09A81A2F101727A
S315080007A09342F0D19A4C9B4D1EF068FA1EF067FAF8
S315080007B09949206820F0F4F81EF060FA1EF05FFAF6
S315080007C0D5E900329549206820F0EAF81EF056FA75
S315080007D01EF055FA2A699249206820F0E1F81EF0C1
S315080007E04DFA1EF04CFA8F49206820F0D9F81EF011
S315080007F045FA1EF044FA8C49206820F0D1F81EF01C
S315080008003DFA1EF03CFAD5E902328849206820F004
S31508000810C7F8874B1B78032B09D12BF0E6FE044655
S31508000820002101202BF0DEFA20462BF0D9FEFFF737
S315080008309DFE02217F4B187805B0BDE8F04011F007
S3150800084045BE734C1EF01AFA1EF019FA7A4920684A
S3150800085020F0A6F8FFF78AFEF72078490EF02CFF5D
S31508000860054618B37649206820F09AF87549206835
S3150800087020F096F81EF002FA1EF001FA724B734A3F
S315080008800093734940F20313206820F089F87149F0
S315080008902B46714A206820F083F8284600F080FB32
S315080008A06E49206820F07CF800BEFDE7614E3046B0
S315080008B011F0BEFD054618B36149206820F070F8AE
S315080008C06049206820F06CF81EF0D8F91EF0D7F9B8
S315080008D05D4B5E4A00935E494FF48373206820F0AF
S315080008E05FF85C492B465C4A206820F059F8284690
S315080008F000F056FB5949206820F052F800BEFDE783
S315080009000221307811F0CEFD054618B34C4920680F
S3150800091020F046F84B49206820F042F81EF0AEF960
S315080009201EF0ADF9484B494A009349494FF485737F
S31508000930206820F035F847492B46474A206820F0BA
S315080009402FF8284600F02CFB4449206820F028F8A8
S3150800095000BEFDE7A022009003461146307811F04C
S315080009607FFD054618B33649206820F019F8354941
S31508000970206820F015F81EF081F91EF080F9324B38
S31508000980324A009332494FF48D73206820F008F8F4
S3150800099030492B46304A206820F002F8284600F0F5
S315080009A0FFFA2E4920681FF0FBFF00BEFDE7022173
S315080009B0307811F08BFD054600283FF4E4AE204957
S315080009C020681FF0EDFF1F4920681FF0E9FF1EF0A1
S315080009D055F91EF054F91C4B1C4A00931C494FF458
S315080009E08F7320681FF0DCFF1A492B461A4A2068C5
S315080009F01FF0D6FF284600F0D3FA184920681FF0E2
S31508000A00CFFF00BEFDE700BFA0000A00A000060257
S31508000A10800E0020D00D0020A6CB0208B7CB020816
S31508000A20D7CB0208EBCB020811CC020822CC02086D
S31508000A30A62600202B2C0020FFCA02086C260020C0
S31508000A400FCC020816CB020864CC02081BCB02089E
S31508000A5024CB020833CB020830CB020848CB020865
S31508000A60037B464D2B701EF009F91EF008F9444B1E
S31508000A70444918681FF094FF0222434B18211A7044
S31508000A8000234FF6FF72CDE90132C822009228787A
S31508000A90282211F02FFD76E61EF0F0F81EF0EFF88A
S31508000AA0B4F805203949364B186805B0BDE8F0405A
S31508000AB01FF076BFB0F80530354A033BDBB213802A
S31508000AC01EF0DCF81EF0DBF8B4F805203149EAE739
S31508000AD0B0F80530C5791B2B07897FF454AE012D74
S31508000AE07FF451AE012F264E274C16D103232370CF
S31508000AF02BF07BFD0446394638462BF073F9204621
S31508000B002BF06EFD1EF0BAF81EF0B9F822493068CF
S31508000B1005B0BDE8F0401FF043BF1EF0AFF81EF069
S31508000B20AEF81E4930681FF03BFF022323702BF0F6
S31508000B305CFD0446002128462BF054F9204605B0F2
S31508000B40BDE8F0402BF04CBD837A002B3FF41BAE7A
S31508000B500025134E05E02344D97A30681FF0F3FECA
S31508000B600135A17AEBB28B42F5D30E4B9A68013266
S31508000B709A60DA680A44DA6005E600BF2A2C002083
S31508000B80800E002059CB0208A62600206DCB02084D
S31508000B906C26002092CB020847CC020855CC0208E6
S31508000BA0C8290020D00D002030B503687E4A23F4FA
S31508000BB07F4323F00703934289B040F0F38008226D
S31508000BC000211220794B0EF091FD044618B3784D9A
S31508000BD0784928681FF0E4FE774928681FF0E0FE88
S31508000BE01EF04CF81EF04BF8744B754A0093754985
S31508000BF05C2328681FF0D4FE73492346734A286885
S31508000C001FF0CEFE204600F0CBF9714928681FF088
S31508000C10C7FE00BEFDE70146032214206D4B0EF009
S31508000C2065FD044618B3624D624928681FF0B8FE90
S31508000C30614928681FF0B4FE1EF020F81EF01FF860
S31508000C405E4B5F4A00935F496A2328681FF0A8FE37
S31508000C505D4923465D4A28681FF0A2FE204600F03B
S31508000C609FF95B4928681FF09BFE00BEFDE7014619
S31508000C7005221620584B0EF039FD054618B34C4C84
S31508000C804C4920681FF08CFE4B4920681FF088FEEF
S31508000C901DF0F4FF1DF0F3FF484B494A00934949FC
S31508000CA0782320681FF07CFE47492B46474A206870
S31508000CB01FF076FE284600F073F9454920681FF0B4
S31508000CC06FFE00BEFDE70DF10F0104A811F03CFC14
S31508000CD0044618B3364D374928681FF061FE364971
S31508000CE028681FF05DFE1DF0C9FF1DF0C8FF334BD5
S31508000CF0334A00933349832328681FF051FE32494B
S31508000D002346324A28681FF04BFE204600F048F971
S31508000D102F4928681FF044FE00BEFDE7BDF81430D1
S31508000D2001465BBAADF818309DF8133008228DF8E5
S31508000D301A30FF238DF81B30FE238DF81C309DF8E2
S31508000D40123018208DF81D30BDF810305BBAADF89A
S31508000D501E3006AB0EF0CAFC054618B3144C1549EE
S31508000D6020681FF01DFE144920681FF019FE1DF0AB
S31508000D7085FF1DF084FF114B114A009311499323F7
S31508000D8020681FF00DFE10492B46104A20681FF0F8
S31508000D9007FE284600F004F90D4920681FF000FEFA
S31508000DA000BEFDE709B030BDA000010073CC020803
S31508000DB0800E00200FCC020816CB0208AECC020823
S31508000DC07CCC020824CB020833CB020830CB0208BD
S31508000DD048CB0208A4CC0208A8CC0208064B1B681C
S31508000DE01A7A022A04D812B11B68044A136070479B
S31508000DF0032AF9D0704700BFB0290020E40D00206F
S31508000E0030B5214D95B00DAC0FCD0FC495E8070050
S31508000E10032384E807008DF84D3029231B4A1C4913
S31508000E20CDE902231B4B0E22CDE9041300210DF157
S31508000E302600069127F0E3FE4FF48020164B07A9FB
S31508000E40CDE9070309238DF824300A238DF82530C8
S31508000E50124B0DAA0A9320230B9301238DF83130E8
S31508000E600F4B1048009302AB06F03EF804469DF877
S31508000E7032304FF4E130002B0CBF032100211DF066
S31508000E803DFF204615B030BD20CF020800C00550F2
S31508000E90000500060009000824C00550A726002002
S31508000EA0E80D0020540E0020831E012B10B50C46B9
S31508000EB019D801290DD8184B04221B6C05210020CE
S31508000EC0C3F3401303F048FB24B1144B18680368B6
S31508000ED0F3B910BD114B18680368002BF9D0BDE8AB
S31508000EE0104005F0BFBF8B1E012B0CD80128F0D887
S31508000EF0BDE810400022084B05211B6C1046C3F3C1
S31508000F00401303F029BB0029E4D00129DDD0E0E72E
S31508000F10BDE810401FF062BF00C00350C42900207E
S31508000F2008B50449044806F019FCBDE80840FFF76F
S31508000F3067BF00BFCC290020780E002001481FF0AB
S31508000F40C7BF00BF540E002001481DF0FBBE00BFFE
S31508000F503CCF0208012208B5074B1A700022074B3E
S31508000F601A700422064B1A701F22064B1A7005F0D7
S31508000F70F7FD054B186008BD2E2C0020C72600205B
S31508000F802D2C00202C2C0020800E0020024B03491B
S31508000F9018681FF005BD00BF800E002054CF020858
S31508000FA070B50C4C0C49064620681FF0F9FC05F094
S31508000FB0D7FD0546206805F0C7FD3046FFF7E6FF72
S31508000FC0284605F0C1FD20680449BDE870401FF0B9
S31508000FD0E7BC00BF800E002056CF020858CF020893
S31508000FE008B503481FF079FCBDE808401DF0EFBDC1
S31508000FF030E2020801481FF070BC00BF30E2020868
S3150800100007B508201DF002FF02238DF80030054BB6
S31508001010684601931DF036FE082003B05DF804EB20
S315080010201DF0FFBE006A18100348044A0449121A44
S3150800103092101DF073BE00BF70010008300300084F
S31508001040E027002008B500F02FF8FFF7EDFF124B58
S3150800105012498B4212D30020114B12498B4218D3E6
S31508001060FFF74AFA186850F82240586840F82240B4
S31508001070013298688242F5D30C33EAE70022F8E792
S315080010801C6844F8220001325C68A242F8D308338F
S31508001090E4E70022F8E700BF082903081429030833
S315080010A014290308142903084FF48041124B134AE4
S315080010B070B59A60D3F88820114D42F47002C3F8CF
S315080010C08820104A05F5005491664FF0FF322266D3
S315080010D00D4A62660222C3F8D020BFF34F8FBFF3D2
S315080010E06F8F4FF44036002005F020FD0020E660A3
S315080010F005F000FD2E6170BD00ED00E0000000085F
S315080011000080004400900050F7FF3700014B18603C
S31508001110704700BFDC290020054B1860054B1B6F84
S3150800112003F00703032B01D12AF0E0BA704700BF8A
S31508001130E42900200080005030B5056887B0AB88E8
S3150800114004461848ADF80C301FF0C7FB00220121F1
S3150800115003A800F0FDF80DF10B0103A81DF06DFEC4
S315080011609DF80B3083F001032B70AB79022B15D158
S315080011704FF0FF330022CDE9043304A90A4B00944B
S3150800118003A800F0E7F9049B009401330CBF04227E
S315080011900122054B05A903A800F05CF9002007B059
S315080011A030BD00BF30E2020851ED0108002307B543
S315080011B0294801931FF091FB4FF440730122042143
S315080011C06846ADF8003000F0C3F80122234B05202D
S315080011D0C3F8442401A92BF033FB002839D1204B4E
S315080011E0D3F8F02042F00102C3F8F020D3F8FC202F
S315080011F042F08072C3F8FC201A4AA3F55D431A60D0
S31508001200019B194A03F5D52303F2FC43B3FBF2F31A
S31508001210164A013B13610223C2F8F0304FF480737B
S31508001220C2F804334FF06043114AC3F8B02F114A8D
S31508001230C3F8802ED3F8002E42F48072C3F8002E2D
S31508001240FF2283F82020D3F8002E22F48072C3F8F8
S31508001250002E03B05DF804FB30E2020800D003500C
S3150800126000ED00E0FF030040F8590D00000004E01F
S3150800127055CEACC5090001004FF06043D3F8802E67
S3150800128030B5D20715D501240B4D8440D5F8FC207E
S3150800129042F08072C5F8FC20D3F8002E2243C3F82A
S315080012A0002E53F82020002AF0D003F82010002042
S315080012B030BD1120FCE700BF00ED00E02DE9F0414C
S315080012C004460C254FF00108124E0CB314F0010029
S315080012D00BD0002024F0010405FB00625768002F9C
S315080012E0F3D09168C0B2B847EFE72246013020280C
S315080012F04FEA520201D0D307F8D508FA00F20F28B0
S3150800130024EA0204E8D9103805FB0062B432E5E79E
S31508001310BDE8F081840E002008B50C481FF0DDFA00
S31508001320192005F0F5FB28B1192005F0FFFB192057
S3150800133005F0E0FB1A2005F0EBFB28B11A2005F0B2
S31508001340F5FB1A2005F0D6FB002008BD30E202089E
S315080013502DE9F0410E469046054618B30F2923D8C5
S315080013600378E3B1012B03D0022B18D0032B1BD132
S315080013703F236A78D340DB0716D50D4BD3F81043C5
S31508001380A4B92BF03BF9074642462846314603F0F6
S3150800139049FB38462BF02DF92046BDE8F08140F28E
S315080013A0FF33E6E72224F7E72124F5E70224F3E7EB
S315080013B000C0035010B50446E8B10378C3B1012B49
S315080013C003D0022B14D0032B17D13F236278D340C6
S315080013D0DB0712D52BF012F90122637821789A409F
S315080013E030235943064B5A502BF003F9002010BD01
S315080013F040F2FF33EAE72220F9E72120F7E700BFAA
S3150800140040D0035010B50446E8B10378C3B1012BA8
S3150800141003D0022B14D0032B17D13F236278D34075
S31508001420DB0712D52BF0EAF80122637821789A4077
S3150800143030235943064B5A502BF0DBF8002010BDD9
S3150800144040F2FF33EAE72220F9E72120F7E700BF59
S3150800145040E003502DE9F0410D46164698460446ED
S31508001460002851D000294FD002784AB1012A42D02B
S31508001470022A05D0032A3ED0FF2A07D0212041E0C0
S3150800148040F2FF336278D340DA07F7D5022E01D946
S31508001490042EF3D12BF0B2F823780746FF2B05D09C
S315080014A032462046296803F003FB28602B6801337F
S315080014B009D12378FF2B06D1144B6078D3F824146E
S315080014C01EF06EFA286029684B1C17D00C23104AA8
S315080014D003FB0122069BC2F8048093602378FF2B46
S315080014E004D001230B4A8B40C2F8243438462BF02B
S315080014F080F8002006E03F236278C4E738462BF0E0
S3150800150078F82D20BDE8F0812220FBE700C00350C3
S31508001510840E002000D003500F2810B5044613D8B7
S315080015202BF06CF80123094AA340C2F82034C2F80C
S3150800153024340C22064B02FB04330024C3E901447D
S315080015402BF057F8204610BD2120FCE700E0035099
S31508001550840E00202DE9F0410D4690461F460446AC
S31508001560002842D0002940D0017849B1012933D05A
S31508001570022905D003292FD0FF2907D0212032E0E0
S3150800158040F2FF336278D340DA07F7D52BF036F806
S3150800159023780646FF2B05D042462046296803F0E5
S315080015A00DFB28602A68531C19D00C23104903FB2D
S315080015B00211069BC1F8B870C1F8BC302378FF2B1E
S315080015C005D00123103293400A4AC2F82434304623
S315080015D02BF00FF8002006E03F236278D3E7304669
S315080015E02BF007F82D20BDE8F0812220FBE700BF8D
S315080015F0840E002000D0035008B503F0F9F9054B16
S3150800160000F0553020F05020C3F82004BDE808400B
S31508001610FFF754BE00E0035008B503F0E9F9054B9F
S3150800162000F0AA3020F0A020C3F82004BDE8084046
S31508001630FFF744BE00E003502DE9F04F9A46564B9B
S3150800164085B01B7806460F461546DDF83C909DF892
S3150800165044B0DDF85080002B00F09780072A00F28E
S3150800166096800E9B002B00F09280B9F1000F00F0D7
S315080016708E80129BB3F5006F00F38980012803D191
S31508001680109B002B00F08380444B03EB05131B7B58
S31508001690002B7ED0424C10220021684627F0AFFA74
S315080016A004EB45141022A7BB3946204627F0A7FAB3
S315080016B043F210036380BBF1000F03D1E37843F0D4
S315080016C00303E370364A0E9B02EB451CCCE90193F3
S315080016D0129B6901581E9DF84C30C0F30A0003F0AE
S315080016E003039B0643EA001E53582E48012E00EAC0
S315080016F003004EEA0003CDF800A0535017D0B8F106
S31508001700000F2ED19CF8023068F304138CF80230CF
S3150800171027E00021204627F072FA4FF444736380CD
S31508001720BBF1000FCED1E37843F03003C9E71323AA
S315080017300CF1100ECCF80C309CE80F008EE80F0068
S315080017406FF00301DCF81C20109B61F39F02012F48
S31508001750CCF81C20CCF8143003D1CCF81890CCF86F
S31508001760043000270D4A290102EB051342F80180CF
S31508001770159A28465A60694622469F605E7302F0AB
S315080017807FFF384605B0BDE8F08F0748FAE70748F7
S31508001790F8E70748F6E700BFC8260020EC10002047
S315080017A0EC0F00200F80FFF3028000F0018000F0AC
S315080017B0078000F038B5124B05461B78DBB1E0B15F
S315080017C02AF01CFF0F4A00231146147B54B92B60DC
S315080017D001251A0101EB03131D738C502AF009FF2A
S315080017E0204638BD0133082B02F11002EDD12AF04C
S315080017F000FF0548F5E70548F3E70548F1E700BFA8
S31508001800C8260020EC100020048000F0028000F0BA
S31508001810018000F038B52AF0F1FE002305460B4A90
S31508001820147B6CB90133082B02F11002F8D102F0CF
S31508001830D3FE074B28461C702AF0DBFE204603E041
S3150800184028462AF0D6FE034838BD00BFEC10002013
S31508001850C8260020058000F00D4B10B51B780446FD
S3150800186093B1072812D82AF0C9FE0A4B03EB0413D2
S315080018701A7B2AB100241C732AF0BBFE204610BD31
S315080018802AF0B7FE0448FAE70448F8E70448F6E7FA
S31508001890C8260020EC100020068000F0028000F028
S315080018A0018000F0154B13B51868002301908DF8D8
S315080018B004302AF0A3FE124B1C7824B12AF099FEB4
S315080018C0104802B010BD01221A702AF092FE0E4B83
S315080018D001A81C731C7783F82C4083F83C4083F8D6
S315080018E04C4083F85C4083F86C4083F87C400823BE
S315080018F08DF8073002F094FE2046E2E75BCF020837
S31508001900C8260020038000F0EC100020F8B50D4D25
S315080019102D7885B1072810DC0B4D060105EB001460
S31508001920277B67B1AB510025069BA560636002F073
S31508001930A7FE2846F8BD0548FCE70548FAE7054826
S31508001940F8E700BFC8260020EC100020028000F04F
S31508001950018000F0078000F00A4A08B512785AB1EB
S3150800196007280BD8084A02EB00131B7B43B100215A
S3150800197002F048FE002008BD0448FCE70448FAE7E0
S315080019800448F8E7C8260020EC100020028000F082
S31508001990018000F0078000F00A4A08B512785AB1AB
S315080019A007280BD8084A02EB00131B7B43B1012119
S315080019B002F028FE002008BD0448FCE70448FAE7C0
S315080019C00448F8E7C8260020EC100020028000F042
S315080019D0018000F0078000F0184B2DE9F0411F6DDB
S315080019E05B6D1F4000D5FEE701260025144CDFF885
S315080019F05880374218D02368C8F85060A3B1A16848
S31508001A00284601316268A1609847637B012B0BD198
S31508001A1050B90C4B03EB45131A7B60F341021A735A
S31508001A201A7F60F341021A770135082D4FEA4606F8
S31508001A3004F11004DDD1BDE8F08100BF00000450B8
S31508001A40EC100020EC0F0020002004502DE9F04F88
S31508001A50144606460D469B46C36B87B001225B6952
S31508001A6002A960689847F36B01225B6903A92846B7
S31508001A70984702A81DF01CFE074648B10023A37527
S31508001A8063754FF0FF33A360002007B0BDE8F08F01
S31508001A9003A81DF01AFE0123A375237E04EBC303D6
S31508001AA0DD611F846368AB420ED1206003A81DF078
S31508001AB02EFE4FF0FF332075A360237D043B022BD7
S31508001AC026D80023A375DFE723681A1A5342534121
S31508001AD0A37503A81DF01BFE237D834218BFA775B7
S31508001AE003A81DF0F6FD074602A81DF0F2FD874281
S31508001AF018BF002303A818BFA3751DF0F2FD0746FB
S31508001B0002A81DF0EEFD87421CBF0023A375D4E78B
S31508001B1003A81DF0DEFD80B1F36B022228465B693F
S31508001B2004A9984704A81DF0E3FD0346207D032871
S31508001B3039D8DFE800F03838040903A8F3E7CC22DF
S31508001B40237E04EBC3031A8401F0A2FA109B1870D3
S31508001B5003A8277E1DF0B1FD04EBC70787F822000E
S31508001B60237E03A804EBC303B3F8209093F82270EE
S31508001B701DF0AFFD804603A81DF0B3FD8246B8F1FF
S31508001B80000F15D0F36B022228465B6904A9984713
S31508001B9004A81DF072FD6075637D6BB90023A375FB
S31508001BA04FF0000838E0227E04EBC2021384CBE72C
S31508001BB003A81DF04DFDEEE794F81680B8F1000F66
S31508001BC0EED0B9F1000F09D1DFB10123627EE375CA
S31508001BD0002A44D19F4218D1677614E0736C05EB4E
S31508001BE00A02594285EA020008421CBF0021A17573
S31508001BF0591E0A409B1A9945D0D8A37D002BE3D1DC
S31508001C00CEE7E37D43B94FF000084B4652462946D6
S31508001C1030461DF08BFAA060A27D12B123694B44B1
S31508001C2023611449237E097899421ED90133237604
S31508001C30BBF1000F1BD0D2B1E37DC3B1B8F1000FE1
S31508001C4015D1032F13D0A1684B1C10D0109B224628
S31508001C50009330460123FFF7F9FEA07507E0012F30
S31508001C60DAD0032F08BFA376CDE70023A375A07D9E
S31508001C700BE700BF80CF02082DE9F04F0E469846C5
S31508001C8000238BB004464FF0FF31104617468DF8F7
S31508001C90133001F0E7F9B6F5801F3BD3B21C53D1D8
S31508001CA0E56A6B1C57D12046616A1DF085F9054621
S31508001CB0B31C18BF0123DFF810910193636A626CA5
S31508001CC00293236805A902FB053AE36B05225B69C3
S31508001CD05046984705A81DF086FD1DF0A9FD5046FB
S31508001CE01DF0B1FD4FF0000B824601464B1C05D096
S31508001CF0636C81EA0A025B42134232D029462046C7
S31508001D001DF05AF9029BAB424DD0BBF1000F4DD1E5
S31508001D100546D3E7314605AA04F108001DF016FC6E
S31508001D200146481C10D0384601F09CF90122394674
S31508001D3020460DF113031DF04BFA28B19DF8133018
S31508001D4088F80030002003E0237C002BA8D12D2042
S31508001D500BB0BDE8F08F2368ED1A636CB5FBF3F59D
S31508001D60A6E7484601F07EF90DF1130349462046D9
S31508001D70019A1DF02DFA034690B1B21C03D0D9F88A
S31508001D800020B2420CD19DF8132003930D4B88F81E
S31508001D90002049461A68384626F03CFF039B9B46B6
S31508001DA0D9F80810A2E7BBF1000FD0D0B6F5801F0E
S31508001DB0C8D2314698F800307A6804F1080001F074
S31508001DC07FF8BFE77CCF0208E01700202DE9F34132
S31508001DD00446174698460E46194D816AE36A8B42B1
S31508001DE02AD04B1C18E0284601F03CF90122294666
S31508001DF020460DF107031DF0EBF930B1434629469D
S31508001E0020469DF80720B847B0B1A9684A1C05D0F6
S31508001E10012E0AD0E36A9942E5D10DE069682046A9
S31508001E201DF057F9012E0146D8D16B6881EA0302E5
S31508001E30636C5B421A42D1D002B0BDE8F08100BFA4
S31508001E40B41700202DE9F041036B9046826B0768B2
S31508001E509A4288BF8363426C436A90B002FB037759
S31508001E60C36B0E46052201A95B69044638469847A6
S31508001E7001A81DF0B8FC01280146307057D0656CE2
S31508001E80E26B2368606AD2F814C005FB00300522AD
S31508001E9006A9E04706A81DF0A6FC01284FF0000594
S31508001EA023D0D4E90A3201219342CDE90B458DF8B6
S31508001EB034800E958DF83C102AD1194620461DF01F
S31508001EC008F9236B626C14339B1AE06223630C9B3C
S31508001ED053B99DF83C303BB1626A616C2368E06B8C
S31508001EE001FB02311DF037FC0C9DE36B05225B6993
S31508001EF001A93846984701A81DF075FC3070284698
S31508001F00236BA26B9A4288BFA36310B0BDE8F08129
S31508001F10237C33B91C490BAA04F1080001F01EF80A
S31508001F20D5E72046194A0BABFFF750FFCFE7237CCE
S31508001F3023BB2246164904F1080001F00FF8616A2E
S31508001F4020461DF05AF8616A421C20461DF023F807
S31508001F50054620B9236B626C1344143B2363204661
S31508001F60A16A1DF0B6F82368A062C01A636CB0FBBC
S31508001F70F3F0606220461DF0EFF8B6E7002320462E
S31508001F80044AFFF723FFDAE759270008D526000891
S31508001F9059F20108F5F1010873B50D46D11E4A42FA
S31508001FA01C461B7E4A419A4226D1296823689942D3
S31508001FB022D3636899421FD8114E0DF107033246A2
S31508001FC0FFF75AFEC0B972686B689A4214D19DF839
S31508001FD00730DA1E53425341227E93420CD163697D
S31508001FE001336361D4E90323934205D22968A268C1
S31508001FF042F8231001332361012002B070BD00BFEF
S315080020000C1800202DE9F04F9A468BB09DF85030F9
S31508002010DFF850B10293DBF81030804653450D4681
S315080020201646C0F09980D146DBF804300193B9F121
S31508002030000F00F08D80D8F83C3001225B6907A9B3
S315080020400198984707A81DF040FBDBF80030984236
S3150800205040F0858007A81DF044FB0428074614D1E4
S3150800206007A81DF045FB019B029A04463B44002A3B
S315080020703FD1864212D91446361A404601991DF0B8
S3150800208028F8A9EB04090190D1E7D8F83C300222D8
S315080020905B69019808A9984708A8E2E7841B544594
S315080020A028BF5446032C03EB0607AAEB040A4FEA9B
S315080020B094021CD9D8F83C30294638465B699847BB
S315080020C024F0030304F003061F441D44002ED4D055
S315080020D0D8F83C3001225B6908A938469847324649
S315080020E0284608A9354426F095FD0026C5E7264664
S315080020F0ECE7074600F00302039203442A18049209
S315080021000593049BDD1B059BD81B039B9F420FD1A0
S31508002110002FB2D0D8F83C30012208A95B6998474D
S315080021203A46284608A926F040FD78B93D44A4E772
S31508002130D8F83C30012208A95B699847042228464A
S3150800214008A926F032FD08B9043FDAE74FF0360948
S3150800215048460BB0BDE8F08F4FF06309F8E74FF03B
S315080021606F09F5E7381800202DE9F0410F461646A5
S315080021709846044688B060B390F83450FDB1012102
S315080021801CF0DFFE00210E9BCDE90511CDE90237D3
S315080021909DF83C30CDF804808DF81C30237C0496DD
S315080021A08BB90D4901AA04F1080000F0D7FEDDE954
S315080021B00553E06B002E08BF1D461DF05BF8284648
S315080021C008B0BDE8F0812046044A01ABFFF7FEFDE2
S315080021D0EDE70546F3E700BF23F20108991F00085B
S315080021E02DE9F04F99B00F4609920A69416C0E9392
S315080021F01439D31DB3FBF1F3013302EBC302036BAE
S3150800220004469342C0F00D820023DFF820940D9314
S31508002210E36A48461946079300F024FFD7E90336D0
S3150800222004930E9B022B4ED1CC2E40F08A81099B3B
S31508002230002B42D0394620461DF07AF8656C079A7D
S315080022406B1E13401490ED1AE36B01225B6916A905
S315080022507868984716A81DF03CFA00280CBF042396
S315080022600823782E06933DD9012300254FF0080A46
S3150800227005933B6805990E98C9F80030C9F81060AF
S315080022801DF049FA4FEA9A0310930023DDF81CB0B3
S3150800229089F814000B930F9308930C93616C4A1EEC
S315080022A00BEA02028B1A002E38D05544AB4240D8AE
S315080022B0236B5B1A13442363ABE0049B1B681493DC
S315080022C008230693D0E7656C079A6B1E1340782E91
S315080022D0A5EB030516D8FB7D7BB9099B002BB3D16B
S315080022E004230693331DAB4210D9A6B1082DBBD8DB
S315080022F004250023AA460593BBE7099B002BA3D117
S315080023000823EEE7099B002B9ED1D9E70025059502
S315080023104FF0040AADE704250596F9E75345C7D3F8
S31508002320B0460BEB0A030393089B002B18BF032345
S3150800233013E0A3EB0A039E42B0460BEB0A0228BF42
S3150800234098469E420392EFD90123D9F8102089F8BE
S315080023501730964271D1C9F804B0089399F8173026
S31508002360002B6CD099F818200899D31C09EBC303E5
S315080023700132C3F804B0A3F80880997289F81820C6
S31508002380B8F1000F14D00E9B022B5BD10B9B7BB9C7
S315080023900F9B4344032B0BD9E36B01229B690398DC
S315080023A014A998470546002840F03D8101230B9360
S315080023B0089B16A80193059B009399F81420434699
S315080023C0396800F005FEE36B58469B69109A16A912
S315080023D09847051E0D9B18BF5B4652460D935946F6
S315080023E0434620461CF0A2FE236B08F10302A3EB2A
S315080023F00A0322F003029B1AC9F808002363002D7A
S3150800240040F011810F9BDDF80CB04344A6EB08069B
S315080024100F93594620461CF05CFE00258346002E85
S315080024207FF43CAF814A3968936804F10800E36297
S3150800243052680E9B00F044FDDEE002238DE7C9F8E2
S3150800244004B09DE7099B002B30D1049BB8F1030F1C
S3150800245043440A9327D9DDE90301E36B4FEA98025F
S315080024609B6998470546002865D118F003025FD096
S31508002470049B28F003052B440493039B1D444FF04B
S31508002480FF33049915A8159326F0C4FBE36B284679
S315080024909B69012215A9984705460A9B0493002DB6
S315080024A086D0039B99E74246039DE8E7039B0A9378
S315080024B007F120031193FB7D78689BB100233D7ECD
S315080024C00C9AD9B28D4211D9119903F1010C31F840
S315080024D03310914226D9069907EBC303D8690A44F3
S315080024E0104403E00C9B069A13441844E36B01223C
S315080024F05B6915A99847159B012213930C9B0A98AB
S3150800250004330C93E36B13A99B699847039B0A9AB8
S3150800251043449B1A042B054607D978B91346043356
S315080025200A93C8E76346521ACBE70A9B0393B6E7B2
S315080025300A9B04933CE70A9B0493B2E70A9B03931E
S31508002540AFE7702604F1080303932368079A606CC3
S31508002550A2EB030ABAFBF0FA00FB0A301DF073F986
S31508002560E16A804620461CF0B4FDA26A82424AD03F
S31508002570626CD9F80830511E0B40216B2568891A00
S315080025800B4423630D9BE0625D1BB5FBF2F5AA4580
S3150800259036D1079BB3EB080A12D0E36B4FEA9A02CF
S315080025A041469B6998478346E36A079A5344E36220
S315080025B0236B03989B1A434423631CF098FFDA465F
S315080025C02368616CE06B01FB05311DF0B1F820460C
S315080025D01CF0C2FC20461CF0BFFD2063BAF1000FB8
S315080025E011D03A69616CD31D1439B3FBF1F3013389
S315080025F002EBC3029042A8D2304619B0BDE8F08F6C
S315080026004FF0000ADCE73A69616CD31D1439B3FB55
S31508002610F1F3013302EBC302236B9342BFF4F8AD27
S31508002620EAE71C26E8E72E468CE700BFE0170020FD
S315080026302DE9F3471E4643690446B34288461746C2
S315080026409DF828903DD300258DF8075020461CF0AC
S315080026504FFCD4F830A082450AD2236AB5EB430F63
S3150800266006D2002220460DF10701FFF7EBFB30B337
S315080026709DF80730012B05D1002220460DF10701F0
S31508002680FFF7E0FBB9F1030F06D0314620461CF0F0
S315080026901AFC256B854218D30D4D4FF0FF3128469D
S315080026A000F0E0FC4B46002229462046C5E90376A1
S315080026B0C5F8008002B0BDE8F047FFF791BD0135C7
S315080026C0C4E7622002B0BDE8F0871C20FAE700BF25
S315080026D00C180020032A2DE9F34106460D46174635
S315080026E01C4606D1237A012B23D0012002B0BDE86F
S315080026F0F081DFF86080096842460DF10703FFF7AD
S31508002700BBFA60600028EDD19DF80720237A032ADA
S31508002710E8D0D8F804106A689142E3D1012B2969F8
S31508002720D4F80CC007D172690CEB0103934202D9A5
S315080027302074207CDAE708316144E1603B460122D7
S3150800274029463046FFF74CFD60600028CAD00020B5
S31508002750CCE700BF0C1800202DE9F341089C032A9A
S315080027601746266806D1237A012B24D0012002B009
S31508002770BDE8F081DFF89080304642460DF1070348
S31508002780FFF77AFA60600028EDD12568D8F80400CA
S31508002790A96AD5F844C04840CCF100031840227A0B
S315080027A0E1D1012A09D1E268D8F8103013447269D8
S315080027B0934202D92074207CD9E72868EB6A1B1A51
S315080027C0081AB3FBFCF3B0FBFCF083420BD1706C28
S315080027D0F36A421E1340326B121A134428463363B7
S315080027E01CF077FCE862D8F81020E3680832134436
S315080027F0E36001223B4604492068FFF7F1FC60606C
S315080028000028B0D00020B2E70C1800202DE9F04FC0
S315080028104FF0FF334FF6FF720025044600F1080615
S31508002820C0E909238BB0C3620562056330460F46CB
S315080028301CF05DFE20461CF08FFB20BB2046394667
S315080028401CF00AFC20461CF087FB20BB5E200BB060
S31508002850BDE8F08FE26B2368606CD2F814C000FB09
S315080028600530052205A9E04705A81CF0BCFF01288C
S3150800287028D1294620461CF0C0FB421C2946204682
S315080028801CF089FB0135E3699D42E3D320461CF021
S3150800289063FB0028D2D000254FF0FF394FF6FF73AF
S315080028A0CA46A846C4E90853E369984514D3A5EB74
S315080028B00905012D36D84FF6FF72636A934246D151
S315080028C06720C4E71CF0B9FF0028DBD0294620465C
S315080028D01CF093FB0246D1E72368E26B606C5769EC
S315080028E000FB0830052205A9B84705A81CF07BFFA0
S315080028F0834605A81CF04EFF074658461CF098FF6D
S3150800290068B1574538BFC4F82480B94528BFB946C9
S31508002910BD4238BF3D46BA46236A0133236208F1F1
S315080029200108C1E74FF6FF7300256362E3699D421C
S31508002930C1D2676C2068E36B052207FB05005B695B
S3150800294005A9984705A81CF025FF0135EEE7E26BB7
S31508002950676C2068694607FB030055690522A84786
S3150800296068461CF017FF626A2368606C504D00FBCE
S3150800297002301CF068FF4FF0FF33A062E3622A467C
S315080029806FF00101204605ABFFF776F900284FD115
S31508002990AD6829462046E5621CF0BAFA206320B9DC
S315080029A02046E16A1CF095FBE062294620461CF0A9
S315080029B090FB0546A36A9D423CD16569626CE91C99
S315080029C0143AB1FBF2F14FF0000805EBC1050335E7
S315080029D0B5FBF2F5C1460235E36999453CD3A845EE
S315080029E05AD22046616A1CF0E7FA0027064604F127
S315080029F0400AB84512D8626C2368694602FB063954
S31508002A00E36B05225B694846984768461CF0C2FE98
S31508002A10534602464946E06B1CF017FF31462046EE
S31508002A201CF0CAFA0137AF420646E2D364200EE725
S31508002A30A56AAEE7294620461CF06AFA236B2946A2
S31508002A4003440746236320461CF043FB0546002F34
S31508002A50B0D1C4E90B07ADE7636C2768052203FB11
S31508002A600977E36B05A95B693846984705A81CF002
S31508002A70BAFE1CF0DDFE60B138461CF0E4FE0146E5
S31508002A8020461CF045FA636C143B984208BF08F1CF
S31508002A90010809F101099FE730461CF028FD0023CB
S31508002AA020461946034AFFF791F90020CFE600BFF2
S31508002AB00C180020BFF101080023624A2DE9F041F5
S31508002AC017680E460446136018B921252846BDE83E
S31508002AD0F08190F834500DB309680268914240F0CD
S31508002AE0A98071684268914240F0A480B168826802
S31508002AF0914240F09F80F168C268914240F09A8006
S31508002B0031694269914240F09580B169C26B914240
S31508002B1040F0908072691D468261D7E750222946A7
S31508002B20D0F8388026F06BF8D6E90212336804F13B
S31508002B30080023607368C4F838806360336963618A
S31508002B407369A3611CF0E5FCB36904F14000E36313
S31508002B509B68984794F8432020B1E561002AB4D0D1
S31508002B605B25B3E7656C002DF7D06668B6FBF5F311
S31508002B70E361002AA9D0B542F2D82268B2FBF5F182
S31508002B8005FB1122002A57D105FB1363002B53D1ED
S31508002B9020461CF0ADF9A369043303449E424DD385
S31508002BA040F634726369CC3B934249D8B5F5805FE9
S31508002BB0D6D3032120461CF0C4F9D4E90001E36BFF
S31508002BC01B6898470546E36B0220DB6898471DB1EA
S31508002BD0002384F834301DE039462046FFF716FEF8
S31508002BE06428054604D139462046FFF70FFE0546F8
S31508002BF0636C143B002DEBD1226A204602FB03F6D8
S31508002C001CF076F9A369043303449E4206D284F87D
S31508002C1034505A25E06B1CF02DFB57E70123D4E905
S31508002C200001094A84F834301368013313601CF034
S31508002C300AFDEFE75D2549E7592547E75A2545E7A0
S31508002C405F2543E7701100206C1100202DE9FF4134
S31508002C500F4690461E46054698B390F8343093B30F
S31508002C60B1F5801F31D21A4C02211CF06AF92246AE
S31508002C70394628460DF10F03FEF7FEFF024678B1E6
S31508002C80012342460093394633462846FFF7D0FCCF
S31508002C900446E86B1CF0EEFA204604B0BDE8F08165
S31508002CA09DF80F30012BEBD12169B142E8D1009391
S31508002CB0414633462846FFF7A5F904460028DFD1E2
S31508002CC0E7E72124E8E71124E6E72924E4E700BF3B
S31508002CD0381800202DE9FF410C4616461F460546C2
S31508002CE080B390F834307BB3B1F5801F2ED2DFF86D
S31508002CF0608001211CF025F92146424628460DF13F
S31508002D000F03FEF7B9FF044670B99DF80F30012B83
S31508002D1011D1D8F81030BB4212D102460090314684
S31508002D202846FFF76FF90446E86B1CF0A3FA20461D
S31508002D3004B0BDE8F081022B14BF2D246024F3E70C
S31508002D406324F1E72124F2E71124F0E72924EEE7CA
S31508002D50381800202DE9F04385B00C4617461E4664
S31508002D600546DDF8308098B390F8343093B3B1F562
S31508002D70801F31D2DFF8649001211CF0E2F8214669
S31508002D804A4628460DF10F03FEF776FF044688B932
S31508002D909DF80F30012B14D1D9F8102006EB080343
S31508002DA09A4213D300904346324639462846FFF7DF
S31508002DB029F90446E86B1CF05DFA204605B0BDE823
S31508002DC0F083022B14BF2D246024F3E76324F1E774
S31508002DD02124F2E71124F0E72924EEE73818002029
S31508002DE02DE9F3411F4600230C46164605463B606F
S31508002DF050B390F834304BB3B1F5801F28D2DFF8C2
S31508002E00548001211CF09DF82146424628460DF1C2
S31508002E100703FEF731FF0446A0B99DF80730032BD8
S31508002E2010D0022B0AD10123336004233B60E86BE0
S31508002E301CF020FA204602B0BDE8F081D8F8103020
S31508002E403060F3E72D24F2E72124F3E71124F1E7B4
S31508002E502924EFE73818002030B50C46054685B01A
S31508002E6028B390F8343023B3B1F5801F23D202215A
S31508002E701CF067F80DF10F03214628460F4AFEF7A6
S31508002E80FBFE034688B99DF80F20032A0DD00322BE
S31508002E902146009202462846FFF7CAFB0446E86B1D
S31508002EA01CF0E8F9204605B030BD2D24F7E72124AB
S31508002EB0F8E71124F6E72924F4E700BF38180020BC
S31508002EC02DE9F043466886B3056898464FF0000C2E
S31508002ED0A946AE4655F83C400CF1010CC4F313075D
S31508002EE0013401D0B94217D066450EF1080EF1D16A
S31508002EF02F46002403E0A64207F1080712D055F82A
S31508002F00343001340133F6D1C1F3130141EA0851D3
S31508002F10C7E90012BDE8F08341EA0851CEE900127C
S31508002F20BDE8F083B8F1030F03D101230372BDE8AE
S31508002F30F083002303E09E4209F10809F5D055F80D
S31508002F4033400133C4F30754032CF4D1C1F31303FC
S31508002F5043EA0853C9E90032BDE8F0832DE9F04198
S31508002F600646406882B0C0B10F46904600243368D2
S31508002F7053F8345003EBC403C5F30752C5F31301E2
S31508002F80013504F1010406D05B683046CDF80080AF
S31508002F90B84710B170688442E9D302B0BDE8F08141
S31508002FA0024B1968024B1868FFF786BDE82900200E
S31508002FB0082A002008B529F018FB014B186008BD3F
S31508002FC064180020014B186829F00ABB6418002011
S31508002FD073B504462248012A00EAC1119DF8185023
S31508002FE023F07C4007D9961E012E28D9073303F013
S31508002FF07F03194308E09DF81C300A43DB0603F0FB
S31508003000C053134343F060410023C4E900108DF810
S315080030100730B5B1202221460DF107001CF02FFC20
S315080030201A220DF10700211D1CF029FC08206368EF
S315080030309DF8072043EA8263636002B070BD1143BE
S31508003040E2E71B220DF1070021461CF018FC236855
S315080030509DF80720042043EAC2632360EDE700BF1A
S3150800306080FFFF0738B5094B0D461A68002104464C
S3150800307025F0C5FD00234FF0FF322383C4E9002560
S315080030802361A260E382A37638BD00BF7CCF020825
S315080030900138C0B205289ABF014B185C0120704759
S315080030A081CF02082DE9F0410746154600240E4651
S315080030B0596888B0490A012922464FEA510104F1A4
S315080030C00104F8D8DC78997824031B88C90201F42E
S315080030D0006104F480540C43C3F30A0352032344E7
S315080030E092B24FF000089C18274B6FEA04440393EA
S315080030F025F07843ED4302A90DF107001B22029340
S315080031008DF807801CF0BBFB9DF80720029B02A9DF
S3150800311043EAC2630DF107001B2225F078450493A4
S3150800312002958DF807801CF0AAFB9DF80720029BE4
S315080031306FEA144443EAC26305934FF0FF330794DA
S31508003140069307A9BB69012206F110009847BB69D7
S3150800315005A90446012206F108009847BB694045BF
S3150800316018BF044604A90122301D9847012240458C
S3150800317018BF0446BB69304603A99847404508BFAF
S31508003180204608B0BDE8F08101009AB2044BD3F896
S315080031908420D206FBD4D3F88400C0F3811070478C
S315080031A00040005038B5174B0546D3F828310C4671
S315080031B003F00703013B052B20D8DFE803F00313D0
S315080031C01B0F0B1728F06CFA052305B1286004B10C
S315080031D0236038BD28F064FA0623F6E728F0AAFA31
S315080031E00723F2E728F09CFA0323EEE728F098FA7B
S315080031F00423EAE728F090FA0223E6E700231846B4
S31508003200E3E700BF00800050002337B50193164B53
S315080032100546D3F820320C4603F00703042B21D8C1
S31508003220DFE803F0030B11161B0001230DB1019A09
S315080032302A6004B1236003B030BD002101A8FFF75E
S31508003240B1FF1223F2E728F075FA07230190EDE79C
S3150800325029F0C0F90A230190E8E728F0B3FA092310
S315080032600190E3E70023E1E70080005038B5104BF2
S315080032700546D3F880300C4603F00303022B0BD027
S31508003280032B0DD0012B0FD128F010FA0E2305B110
S31508003290286004B1236038BD28F04CFA0723F6E706
S315080032A028F0FEF90623F2E700231846EFE700BFE9
S315080032B00080005038B5104B0546D3F800310C464F
S315080032C003F00303022B0BD0032B0DD0012B0FD1D8
S315080032D028F026FA032305B1286004B1236038BD17
S315080032E028F070FA0923F6E728F020FA0823F2E70F
S315080032F001230020EFE700BF0080005038B5184BC7
S315080033000546D3F820010C4600F00700062823D806
S31508003310DFE800F0040A0E16121A1E00012305B192
S31508003320286004B1236038BD28F0BAF90523F6E70A
S3150800333028F0F6F90323F2E728F0FCF90723EEE76D
S3150800334028F0EAF90223EAE728F0AAF90623E6E7CD
S3150800335028F0E6F90423E2E700231846DFE700BF72
S315080033600080005038B5104B0546D3F840310C465E
S3150800337003F00303022B0BD0032B0DD0012B0FD127
S3150800338029F028F90A2305B1286004B1236038BD5D
S3150800339028F018FA0923F6E729F01FF90C23F2E7B3
S315080033A001230020EFE700BF00800050002337B557
S315080033B00193164B0546D3F860320C4603F0070313
S315080033C0013B032B1FD8DFE803F0020E1914002176
S315080033D001A8FFF793FF10230DB1019A2A6004B1E3
S315080033E0236003B030BD002101A8FFF7BBFF1123FE
S315080033F0F2E728F09FF907230190EDE728F08CF90A
S3150800340002230190E8E70023E6E700BF00800050AA
S31508003410002337B50193164B0546D3F894320C466C
S3150800342003F00703013B032B1FD8DFE803F0020E66
S315080034301914002101A8FFF761FF10230DB1019AA5
S315080034402A6004B1236003B030BD002101A8FFF74C
S3150800345089FF1123F2E728F06DF907230190EDE7BC
S3150800346028F05AF902230190E8E70023E6E700BFAF
S315080034700080005038B5104B0546D3F860310C462D
S3150800348003F00303022B0BD0032B0DD0012B0FD116
S3150800349029F0A0F80A2305B1286004B1236038BDD5
S315080034A028F090F90923F6E729F097F80C23F2E7B4
S315080034B001230020EFE700BF008000502E4B984202
S315080034C04AD022D82D4B984240D014D82C4B98423B
S315080034D039D00AD82B4B984232D02B4B98422FD052
S315080034E02A4B98422CD000207047294B9842FAD193
S315080034F0284B186F7047284B98422AD0274B98427A
S31508003500F1D1244BD3F880007047254B98422BD035
S3150800351009D8244B984223D0234B9842E3D11D4B1C
S31508003520D3F88C007047214B984221D003F57403D9
S3150800353003F510539842D6D1164BD3F89800704726
S31508003540144B986D7047134B586E7047114B586F54
S315080035507047104B986F70470E4BD3F8840070472E
S315080035600C4BD3F8880070470A4BD3F89000704785
S31508003570084BD3F8940070470048E8010024F4008B
S31508003580C0CF6A0080841E0000093D0040420F003B
S31508003590405DC6000080E00FC0EA210180BA8C01B8
S315080035A0007E560380D54302006CDC020090D003EF
S315080035B073B50D460021114B0191D3F8804106469B
S315080035C004F00304022C13D0032C0CD0012C13D1C5
S315080035D001A8FFF793FE10240EB1019B336005B1D5
S315080035E02C6002B070BD28F0A5F807240190F3E717
S315080035F028F092F80190EFE70C46EDE700800050BE
S3150800360038B5104B0546D3F840320C4603F0030391
S31508003610022B0BD0032B0DD0012B0FD128F0DAFF8C
S315080036200A2305B1286004B1236038BD28F0CAF81A
S315080036300923F6E728F0D1FF0C23F2E7012300203F
S31508003640EFE700BF0080005038B5144B0546D3F8A5
S3150800365000020C4600F0070004281BD8DFE800F03B
S3150800366003090D111500012305B1286004B1236073
S3150800367038BD28F0AFFF0A23F6E728F0A3F8092398
S31508003680F2E728F0AAFF0C23EEE728F02FF80F231D
S31508003690800AE9E700231846E6E700BF00800050E5
S315080036A038B5144B0546D3F808020C4600F0070057
S315080036B004281BD8DFE800F003090D1115000123C3
S315080036C005B1286004B1236038BD28F083FF0A23BA
S315080036D0F6E728F077F80923F2E728F07EFF0C23AF
S315080036E0EEE728F003F80F23800AE9E700231846D7
S315080036F0E6E700BF00800050B0F5207F1FD009D84C
S31508003700B0F5007F15D003D868B1B0F5C07F0AD0F0
S3150800371000200CE0B0F5607FFAD10B4BD3F880009F
S31508003720C0F3011003E0084B186FC0F303300130F3
S315080037307047054BD3F89000C0F30460F7E7024BD7
S31508003740186FC0F38020F2E70080005002464FF45D
S315080037508030104B10B598660020FFF7CDFF504318
S3150800376041F671320C4BDC69DA635A6804F480342A
S3150800377022F4401259B90949884294BF0020012011
S31508003780000502435A600CB10022DA6310BD0449F1
S31508003790F2E700BF0090005000000350005A620292
S315080037A0002D3101430905D0012B0CD0022B084B03
S315080037B018BF002300F01F0039B103F5805301221A
S315080037C082401A607047034BF4E703F50053F6E7A7
S315080037D068800050648000501FB50021B0F5807FD6
S315080037E00446CDE9001100F0D2803AD85E2833D8D5
S315080037F05E2833D8DFE800F04532323232323232D0
S31508003800323232323232323232323232323232328A
S31508003810323232323232323245AC45ACBCBCBCBC38
S31508003820BCACC64E6BDC4EACACAC32323232323249
S315080038303232ACACAC7EE6AC323232323232323272
S315080038403232323232BC454545E14E4EEB8D63C1CC
S3150800385032323232329E4500802870D0009804B049
S3150800386010BDB0F5D06F00F0A38035D8B0F5607FF5
S3150800387079D01AD8B0F5007F65D005D8B0F5C07FE5
S31508003880ECD127F033FF5CE0B0F5207F60D0B0F5CF
S31508003890407FE3D127F02AFF02464FF42070FFF756
S315080038A02BFFB2FBF0F252085BE0B0F5B06F69D0BF
S315080038B00AD8B0F5806F5BD0B0F5A06FCED10021E5
S315080038C06846FFF7A1FCC9E7B0F5C06FC6D100216D
S315080038D06846FFF747FDC1E7B0F5106F6DD00ED803
S315080038E0B0F5086F78D0B9D8B0F5E06F6AD0B0F502
S315080038F0F06FB3D100216846FFF7BCFDAEE7B0F51F
S31508003900406F3AD013D8B0F5206F60D0B0F5286F65
S31508003910A4D10021324B0391D3F8703203F003038C
S31508003920012B02D103A8FFF71DFD039B39E0B0F573
S31508003930486F93D100216846FFF76AFD8EE727F0A6
S31508003940B5FE00908AE727F0B1FE0246204604E05D
S3150800395027F0CCFE02464FF42070FFF7CDFEB2FBEF
S31508003960F0F200927AE701A8FFF780FC019AEDE7EA
S3150800397000216846FFF7C2FC70E700216846FFF79A
S3150800398011FC6BE700216846FFF712FE66E74FF069
S31508003990E02302911B695B0705D527F0A7FE029075
S315080039A0029B00935AE703A902A8FFF7DBFCF7E797
S315080039B000216846FFF748FE50E700216846FFF7F2
S315080039C06FFE4BE700216846FFF71AFE46E700211F
S315080039D06846FFF7EBFC41E76846FFF76BFC3DE7F7
S315080039E00080005008B58020FFF7F6FE034B98428A
S315080039F09EBF4FF48032024B1A6708BD005A620216
S31508003A0000A000501FB503460020B3F5807F019043
S31508003A1000F0C58065D85D2B56D84C2B07D82D2BC2
S31508003A2048D8232B2CD8019805B05DF804FB4D3BEC
S31508003A30102BF8D801A252F823F000BF953B0008D6
S31508003A40273A0008273A0008273A0008433B0008A7
S31508003A50273A0008273A0008EF3B0008613B0008B0
S31508003A60073B0008E53B0008273A0008273A000804
S31508003A70273A0008273A0008273A0008F93B0008C1
S31508003A80243B092BCFD801A252F823F0953B000816
S31508003A90953B0008953B0008953B0008953B0008B8
S31508003AA0273A00088B3B0008273A0008233B000802
S31508003AB0CB3B00083D2B00F083803E2BB3D1002082
S31508003AC001A9FFF79DFDAEE7802BACD1504B1B6FCC
S31508003AD003F00703013B032BA5D8DFE803F0544D99
S31508003AE05052B3F5F06F6BD020D8B3F5B06F4CD009
S31508003AF00ED8B3F5607F71D095D3B3F5806F49D0F2
S31508003B00B3F5A06F8FD1002001A9FFF77DFB8AE7E7
S31508003B10B3F5D06F59D0B3F5E06FD0D0B3F5C06F19
S31508003B2081D1002001A9FFF71DFC7CE7B3F5206FC2
S31508003B305DD00BD8B3F5086F4CD0B3F5106F7FF492
S31508003B4072AF002001A9FFF7ABFD6CE7B3F5406F34
S31508003B5048D0B3F5486F4FD0B3F5286F7FF463AFFD
S31508003B602B4BD3F8703203F00303012B49D0022BF9
S31508003B700CBF1523002300E00523019353E7032315
S31508003B80FBE70823F9E70223F7E7002001A9FFF777
S31508003B900FFD48E7002001A9FFF7B0FB43E74FF008
S31508003BA0E02302901B695B0705D527F09FFD0D23CF
S31508003BB00393039BE1E703A902A8FFF7D3FBF8E702
S31508003BC0002001A9FFF756FC2DE7002001A9FFF701
S31508003BD03BFD28E701A9FFF76DFB24E701A9FFF7DD
S31508003BE045FB20E7002001A9FFF7DCFA1BE70020C8
S31508003BF001A9FFF7DBFB16E7002001A9FFF708FC80
S31508003C0011E7002103A8FFF7ADFB1123B5E700BFB5
S31508003C10008000504FF48032074B0849586E03F570
S31508003C2080535A664B6A23F001034B62C3035CBF99
S31508003C30034B5A66704700BF0080005000C007500B
S31508003C4000A0005008B5FFF7DDFE092811D00A3894
S31508003C50012802D94FF6FF7008BD4FF48002064BC3
S31508003C605A6603F5D8335B6ADB07F3D54FF4FA7067
S31508003C70F2E7024B1888EFE700900050182C002056
S31508003C8008B5FFF7BFFE03280ABF024B4FF6FF70C1
S31508003C90188808BD162C002038B504468020FFF782
S31508003CA0B1FE032800F083804FF48012524B4FF088
S31508003CB0A0615A6645F60E02504BC3F88020504A5A
S31508003CC091624FF4803102F5805291629A6DD20367
S31508003CD0FCD4996D11F08041FBD1D4E9000212059C
S31508003CE042EA0062E07B0243207B42EA0042607BB4
S31508003CF042EA0032A07B42EA80121A619869D4E946
S31508003D000452120642EA856200F000400243A07E91
S31508003D10E57E0243207E42EA0042607E42EA0022B5
S31508003D209A611A6AE06922F00F0242EA8502354D65
S31508003D3000283DD11A6294F82420996A94F8200044
S31508003D40D200294042EA40120A4394F8211042EA76
S31508003D50011242F480329A622B49284A936D31EA5D
S31508003D600303FBD14FF08071254881621369A5686A
S31508003D7023F4700343EA055313614FF0004383614C
S31508003D8094F822300BB9214B996294F823303BB949
S31508003D904FF480321D4B9A62184A936D5B00FCD42F
S31508003DA094F825301BB1154B194AC3F8802038BD45
S31508003DB0024342F0080202281A6208D119614FF438
S31508003DC00852996113484FF47F411BF076FD0B4961
S31508003DD094F822308A6A94F820001B062A4043EA9F
S31508003DE04013134394F8242043EAC20394F823208B
S31508003DF043EA02438B62D3E7009000500040005A22
S31508003E000050005AC7FFFEFE030001000060005A7A
S31508003E10F1A7FFFF3440005A014B93F900007047A1
S31508003E202F2C0020F0B5D0E901434FF400061A4ABA
S31508003E304178057856664FF4D156022702F5B8320E
S31508003E405662164E4F2977604FF0010728BF4F215B
S31508003E5006F5805677601669F603FCD441EA052113
S31508003E6051611B01417B43EA04230B43017B43EA6F
S31508003E7041039360C37B817B1B0143EA4113417C69
S31508003E800B43017C43EA41035360837C13B16FF40F
S31508003E90D1535362F0BD00BF00900050001002508D
S31508003EA0014B1880704700BF182C0020014B188062
S31508003EB0704700BF162C00204FF4800208B5184B37
S31508003EC05A660223174A5360936813F48033FBD16A
S31508003ED0012822D127F024FC134B984215D003F56C
S31508003EE0122303F5F863984213D0104B00EB8002B7
S31508003EF0400AB3FBF0F3520A0A49CA620B6301236C
S31508003F004B620022074B5A6008BD45F67A13084AE9
S31508003F10F2E745F61A03074AEEE75362F1E700BFF0
S31508003F20009000500040025000F049026466666640
S31508003F30D8B80500BBCF0500B0F5207F10B50C46F4
S31508003F405DD008D8B0F5007F4ED003D8C0B1B0F523
S31508003F50C07F15D010BDB0F5607FFBD12C4B4C1E31
S31508003F60D3F8FC202B4912F0807F4FEA041427D19E
S31508003F70D1F8803023F030032343C1F88030E9E7D5
S31508003F801BF0AAFC1BF0B6FC4FF48031224B214AE9
S31508003F901967136F013C23F4704343EA043313672C
S31508003FA027F0A4FB0446FFF7F1F8C0F1020120460A
S31508003FB01BF09AFC00F04AF8BDE81040FFF712BD66
S31508003FC0D3F8FC2022F08072C3F8FC20D1F88020B8
S31508003FD022F030022243C1F88020D3F8FC2042F0B8
S31508003FE08072C3F8FC20B5E70A4A4C1ED2F8903016
S31508003FF023F0F85343EA0463C2F89030AAE7054A67
S315080040004C1E136F23F4806343EA84231367A1E7E6
S3150800401000ED00E0008000500090005008B5012136
S31508004020022000F04DF94FF42070FFF765FB054BB1
S3150800403018701BF051FC1BF05DFC4FF48032024BEC
S315080040401A6708BDC92600200090005008B54FF42D
S31508004050C070FFF7C1FBBDE808400449884294BF19
S31508004060012102214FF42070FFF766BF80F0FA02A3
S3150800407038B5044627F03AFB0546FFF787F8C0F13E
S31508004080020128461BF030FC0121002000F058F9F7
S315080040902CB1FFF7DBFFBDE83840FFF7A3BC034BA5
S315080040A04FF420701978FFF747FFF4E7C926002078
S315080040B04FF4C02270B50546FFF700FA314B0446A7
S315080040C05A6603F598335A68012A04D12E494A607C
S315080040D05A689207FCD48020FFF794FC052807D17C
S315080040E01BF0FAFB1BF006FC4FF48032254B1A67CF
S315080040F0264B24F040749D4230D0254B9D4230D04B
S3150800410027F0CEFA8542064603D90121284600F053
S3150800411017F9204BDA6812F0060FFBD199689C60F4
S315080041209A68624012F4F81F1ED12846FCF7EEFF83
S315080041308020FFF767FC05280DD127F0D7FA04463B
S31508004140FFF724F8C0F1020120461BF0CDFBFFF76C
S315080041507DFFFFF747FCAE420CD270BD44F00074F9
S31508004160CEE744F08074CBE780209960FFF74AFCDD
S31508004170052805D0BDE870400121002000F0E0B810
S315080041803546DAE70090005000E0015040420F0043
S3150800419080841E0000000150304B314A984251D0AD
S315080041A020D8A3F5B703A3F55863984246D00DD88F
S315080041B02C4B984231D02C4B984239D02B4B4FF48C
S315080041C0002198421DD00023516622E0284B4FF467
S315080041D000219842F7D1274BD3F8BC30516623F01B
S315080041E0407316E0244B984230D0244B984231D085
S315080041F0234B4FF400219842E5D11E4BD3F8C83023
S31508004200ECE71C4BD3F8A030516623F0407343F01B
S3150800421000734FF0B442936070474FF40021154B7A
S31508004220D3F8A030516623F0407343F08073F0E76B
S31508004230104BD3F8A0304FF40021CFE70D4BD3F83D
S31508004240B830F8E70B4BD3F8C030F4E7094BD3F88E
S31508004250CC30F0E7074BD3F8D030ECE7C0EA2101C1
S315080042600090005080841E0000093D0040420F0067
S315080042700024F4000080E00F0048E801005A6202BA
S3150800428080BA8C01024A536B0342FCD1704700BFC7
S3150800429000400950044A4178536F23F4407343EAB7
S315080042A001235367704700BF00400050034A017955
S315080042B0D36E23F030030B43D3667047004000509B
S315080042C0F8B504461C4BD3F88420D106FBD4D3F8A2
S315080042D08430C3F381139C422CD027F0E7F9012CD4
S315080042E0064602D121461BF0FFFA28F07EF94FF068
S315080042F00072124B07465A6620461BF001FB4FF424
S3150800430080630D4D621E93402B676B6E9A0103D432
S31508004310D5F884309B060AD5384628F061F9022C70
S3150800432008D13046BDE8F84000211BF0DDBAD5F8C3
S315080043308430EAE7F8BD00BF004000500060005036
S3150800434010B50C4608B927F0B1F9074B21461B787A
S315080043503BB1064B984204D80120BDE81040FFF750
S31508004360AFBF0220F9E700BFCA260020005A620242
S315080043700278034B012100201A70FFF7E1BF00BF46
S31508004380CA2600204FF0004238B5244B244C5A6602
S315080043904AF6CD33656C014605F00105236428BB52
S315080043A00120FFF76FFF6368DB0715D51D4B5860C3
S315080043B008461D4B226BD2070CD4984208D1072415
S315080043C015B1174B194A1A6423F058FE204638BD12
S315080043D00130EFE79842F2D00024F1E70132236B6F
S315080043E013F0080305D08A42F8D1E8E700220E49FF
S315080043F0F5E78A42E3D020210A4A91620121A2F513
S31508004400805251600649084A886A800603D4934256
S31508004410D5D00133F8E79342DDE700BF009000509E
S31508004420004009500060095040420F003254FFFF17
S315080044304FF0004238B5164B01465A664AF6CD3358
S31508004440144C154A656C236443780B205B0043F0D3
S315080044500103D363FFF716FF63688A7823F4F873BA
S3150800446043EA02136360CA784B7943EA0223A360DE
S315080044700A798B7943EA022323610878FFF782FFDA
S31508004480EB0744BF054B236423F0F8FD012038BD34
S315080044900090005000400950004000503254FFFF81
S315080044A04FF00042124B70B55D6E03F580535A66A5
S315080044B04AF6CD3304460F4980204E6C0B64FFF74D
S315080044C0E1FE0B6A23F00F030F2C94BF234343F03E
S315080044D00F030B62F30744BF074B0B64002DA2BF03
S315080044E04FF00042054B5A6623F0C8FD70BD00BF69
S315080044F000800050004009503254FFFF00A00050D1
S315080045004FF00042104B70B55D6E03F580535A6646
S315080045104AF6CD3304460D4980204E6C0B64FFF7EE
S31508004520B1FE0B6A23F4F85343EA04230B62F3073C
S3150800453044BF074B0B64002DA2BF4FF00042054B4A
S315080045405A6623F09BFD70BD00800050004009505C
S315080045503254FFFF00A000502DE9F04105460F46F2
S315080045601E4690464AB101233022194C8B4002FB65
S31508004570004436B304F5825423600F21072F05EB58
S31508004580450388BFA7F108044FEA0313114895BFEE
S31508004590BC00A40004330C3308FA04F2A140184402
S315080045A01BF0AFF9B8F1000F09D101233021084AF1
S315080045B0BB4001FB05223EB102F582521360BDE8FD
S315080045C0F08104F50154D7E702F50152F6E700BF7A
S315080045D000C0035030C0035010B5152002F078FA19
S315080045E00024FF22064B21465C6520209A625C6007
S315080045F0FFF7D8F82146BDE810402120FFF7D2B8CA
S3150800460000000450044A054B002908BF134601223E
S3150800461082401A60704700BF401004504020045082
S3150800462010B5012104462020FFF7BCF801212120FE
S31508004630FFF7B8F80122114B15205A6022781206A6
S315080046409A606178A27842EA01429A61FF229A62E8
S3150800465000229A631A644FF000425A654FF0FF32FF
S3150800466003F500531A6502F061FA1520E1781CF08B
S315080046703FF9BDE81040152002F03CBA000004508E
S31508004680F8B50125C3B2D1F800E091F80AC00F7B4E
S315080046900C469D40CB7A1D491D4E0D65810001F1E2
S315080046A0A04101F58821C1F804E04FF0300E0EFB59
S315080046B000601B05617B43EA0C4343EA475322F03B
S315080046C003020166C365026727F098FF114B5D6513
S315080046D0237A13B1336C2B433364637A13B1B36B08
S315080046E02B43B3632279A37943EA0243074A9361CA
S315080046F06179E37943EA014306498B61044B5563C3
S315080047009D64BDE8F84027F074BF00BF0020045040
S31508004710000004500010045010B50124C0B28440B3
S3150800472027F06CFF044B5A6D22EA04025A659C6214
S31508004730BDE8104027F05DBF0000045010B5012405
S31508004740C0B2844027F05AFF074BDA6A224208D1E2
S315080047505B6B9C430CBF0124002427F04AFF2046CC
S3150800476010BD0024F9E700BF0000045070B50546E7
S3150800477027F044FF3022084B5E6B02FB05335C6E64
S3150800478027F037FF0123EDB2AB4033420ABFC4F32B
S315080047900A100020013070BD000004504FF480322A
S315080047A0054B9A6641F6713203F51C33DA6301222A
S315080047B003F50053DA6070470090005041F67132F5
S315080047C00121064BDA6303F50052D1600022DA6351
S315080047D04FF48032A3F518339A66704700000350E9
S315080047E0013831289ABF024B185C0020704700BF79
S315080047F087CF020838B5C2F30625044602F0070239
S3150800480041B942EA052242F440220634074B43F8EE
S31508004810242038BD114628461BF082F80246284651
S31508004820FFF7DEFF163442EA0022EFE70080035066
S315080048304FF48032064B5A6603F5E6239B69C3F3A9
S315080048408512827003F03F021B0B4270037070479B
S3150800485000900050014B986CD96C70470080E00FAF
S315080048600120034B9B680A3303F01F0398407047E7
S315080048700080E00F70B5054616461C4621B94FF470
S315080048802070FEF7A9FF0146402C1BD003D8DCB1E7
S31508004890202C1BD070BD602CFCD1042303FB06F230
S315080048A0530803EB4113B3FBF2F3094A203B02EA30
S315080048B0C303AA6822F06002AA60AA681443AC601F
S315080048C0EB61E7E70623E9E71023E7E70823E5E7CF
S315080048D0F8FF7F00012100F5805310B5596040F6B6
S315080048E0AA6341F2050243610023094C8360C3654C
S315080048F0C26000F500520361C361C3649464054C49
S315080049008365A04204BF03654365516010BD00BFBF
S31508004910FFFF010000C0055070B50D46FFF7DAFF2E
S31508004920012300F580567360AB7C04461BB183688F
S3150800493043F080438360EB7C5BB1244B9C4202BF0F
S315080049402A7DA3F51033C3F8C821E36D43F080032D
S31508004950E3652A8A6B7B20461343EA891343E3609F
S315080049602B7BD5E90112FFF785FF6B7D1BB1A36889
S3150800497043F48033A360AB7D1BB1A36843F40043C3
S31508004980A360EB7D2A7E1B07120502F4E00203F002
S31508004990E0431343A3656B7E9A1E012A4FF0020279
S315080049A009D80B49032BC1F8202709D10423F3653D
S315080049B02B78636170BD0749012BC1F82027F4E7FE
S315080049C0042204F50053DA65F2E700BF00C005507B
S315080049D000D0035000E003500122437801789A4042
S315080049E030235943014B5A50704700BF40E00350EB
S315080049F0034BD3F82424D3F820041040704700BF93
S31508004A0000C00350064BDA6E02F03002202A06D0A8
S31508004A10DA6E22F0300208B142F01002DA66704708
S31508004A20004000502DE9F8431F4B0546D3F81033D4
S31508004A304B1E0E2B0E461746047890F8018026D991
S31508004A4051B34FF0000928461FB326F02FFF0F2158
S31508004A50B8F1070F04EB440488BFA8F108084FEA29
S31508004A600414124895BF4FEA88084FEA88080434A8
S31508004A700C3409FA08F201FA08F120441AF081FF09
S31508004A8086B9284657B1BDE8F84326F00FBF8946D0
S31508004A90D9E7FFF7A1FFDAE78946D8E7BDE8F84383
S31508004AA0FFF79ABFBDE8F88300C0035030C0035033
S31508004AB02DE9F0412B4B1746D3F810234A1C06461E
S31508004AC00C46407804D1D3F824141AF069FF04463A
S31508004AD0002C2FDB072C4FF0030532782DDC4FEA2C
S31508004AE0840805FA08F529461F4802FA08F21AF05A
S31508004AF048FF294672781D4802F0030202FA08F2B6
S31508004B001AF03FFF012317F0050F194A18BF194974
S31508004B1003FA04F30CBFC2F81034C1F8103417F0C6
S31508004B20060F18BF134AC2F814340123104AA340CB
S31508004B30C2F820342046BDE8F081A4F108084FEAFF
S31508004B40880805FA08F529460B4802FA08F21AF009
S31508004B5018FF7278294602F00302084802FA08F29A
S31508004B60CEE700BF00C0035000C4035008C403507A
S31508004B7000E0035000D0035004C403500CC4035093
S31508004B8038B505460C4C0140D4F8303423EA000306
S31508004B90C4F83034D4F830341943C4F83014D4F88F
S31508004BA02C340343C4F82C34012004F50054FFF7D1
S31508004BB029FFC4F8205438BD00C00350124B70B505
S31508004BC0D3F8103306461AF005FF0446481C154666
S31508004BD003D1621C05D1204670BD631CFBD08C42F4
S31508004BE00ED13046032185F00102FFF71BFF012095
S31508004BF004F1100305FA03F19840FFF7C1FFEAE74D
S31508004C004FF0FF34E7E700BF00C00350054B9A6832
S31508004C109107FCD45A689207F9D4DA69002AF6D1C2
S31508004C20704700BF00800A5008B526F04BFE0222E6
S31508004C30014B1A6108BD00BF00800A5008B5FFF78E
S31508004C40E5FF0122024B03F580514A601A6108BD4F
S31508004C5000800A5008B5044B5968012903D1FFF7AB
S31508004C60E3FF024B596008BD00800A5000A00A50B5
S31508004C7010B5064CFFF7CAFF6368012B03D1FFF78F
S31508004C80E9FFFFF7C3FF0378E36010BD00800A5011
S31508004C90B8B94A680B7812B1127843EAC2034A785F
S31508004CA043EA42038A6812B1127843EA82138A7881
S31508004CB043EA8203CA6812B1127843EA4223014AD8
S31508004CC09364704700800A504FF48032084B5A6646
S31508004CD003F5E6239B691A0B027003F03F02427044
S31508004CE04FF6FF72C3F3851342808380704700BF77
S31508004CF000900050014B986CD96C70470080E00F0B
S31508004D0070B5044623F086FA064630B90FCC044D32
S31508004D100FC594E8030085E80300304670BD00BF60
S31508004D206818002047F6FF739A42F0B56FD002293B
S31508004D306FD8394B5B5C012B6BD8384DDF0005EB20
S31508004D40C30415F83330A178012B13D10025E07878
S31508004D50401AA84202D80844C0B2F0BD431B666890
S31508004D60A0EB530336F913609642D4BF1D4603F1F0
S31508004D70FF30EEE760680028EFD0B0F900409442B3
S31508004D8004DBB0F902409442B8BF144683883D4418
S31508004D90FF2B19BFC8224FF0280CB0F90620B0F92E
S31508004DA008C0A2EB04030CBF0126002693FBFCF304
S31508004DB033446E781BB29E4201DD002B01DA731E66
S31508004DC01BB24FF47A7C01339BB2071D5D1E2DB2D0
S31508004DD04FEAC50E00EBC505EA88AD689E4214FB8E
S31508004DE0025222EAE27202F15C02B2FBFCF204DD34
S31508004DF037F8335001339542E8D200EB0E03988812
S31508004E00904228BF1046884238BF0846A4E7FF20CC
S31508004E10A3E70020A1E700BFB9CF02086818002061
S31508004E200229F0B555D82C4B585C012851D82B4C83
S31508004E3004EBC00114F830004B6801280FD1C8787C
S31508004E408C78904294BFC4EB0001C4EB0201001BAE
S31508004E50CAB28242C8BF002233F91200F0BD002B45
S31508004E6037D08878904202D3B3F90200F6E7CC78B7
S31508004E70B3F900009442F1D94C789988013CA1F124
S31508004E80FF06714203F10405E4B2714103F10C0710
S31508004E90CEB2B44216D805EBC1014FF47A756A430F
S31508004EA0B1F902404968521A04EBD47102EB610267
S31508004EB092FBF4F29042D1DBB3F902009042CDDCCA
S31508004EC010B2CBE737F831C04E1C9445E3D33146D0
S31508004ED0DEE70348C2E700BFB9CF0208681800201A
S31508004EE00080FFFF08B50448FFF70AFFBDE8084041
S31508004EF0012023F093B900BFBCCF020800487047D1
S31508004F001A2C00207FB50222084B0949CDE9012356
S31508004F104FF00073CDE90313072301A94FF0FF30C3
S31508004F20059323F0C4F907B05DF804FB006A18007E
S31508004F30000206002DE9F04393B08946DDE91A8799
S31508004F401D460446002858D0002956D0B8F1000F4F
S31508004F5053D0002F51D013F00F034ED128482949BA
S31508004F600FAE002A08BF0146A360C4E900134846ED
S31508004F703146E3611AF039FE00283BD120460F99E5
S31508004F8027F070FB2946204627F06CFB6946484601
S31508004F9000F0EEFA70BB694620461BF054F8484606
S31508004FA003A91AF021FF28BB204603A91BF04BF8DA
S31508004FB0CDF830804FF0010845F00055CDF8348023
S31508004FC006AB0E950CAA07CA83E8070019462046C1
S31508004FD01BF039F80F9709ABCDF84080119596E884
S31508004FE0070083E80700204619461BF036F82046D6
S31508004FF026F0B2FC13B0BDE8F0832120FAE700BF23
S3150800500000010004000101042DE9F0418CB0884636
S3150800501016461D460446129F00284BD0002949D043
S31508005020002A47D0002F45D00B68103B102B41D8DB
S31508005030214A22FA03F3D9073CD500231F4A836085
S31508005040C0E90023C36109A940461AF0CEFD70BB2A
S315080050502046099927F006FB2946204627F002FB39
S315080050606946404600F084FA08BB694620461AF0AD
S31508005070EAFF404603A91AF0B7FEC0B9204603A9BD
S315080050801AF0E1FF06960126204606A945F00055C6
S31508005090079608951AF0D7FF094B204609A90997DC
S315080050A00A960B931AF0D9FF204626F055FC0CB049
S315080050B0BDE8F0812120FAE701010100000004049F
S315080050C010000020F0B50C4617461E46054695B05A
S315080050D0002874D0002972D0002A70D0002B6ED018
S315080050E0036B0F2B5BD80023364A3846C4E90023E6
S315080050F0A360E36111A91AF078FD00285BD1204668
S31508005100119927F0AFFA296B20460F2984BF01F0C1
S315080051100F01103127F0A6FA384602A900F028FA3E
S31508005120002848D1204602A91AF08DFF384605A95D
S315080051301AF05AFE00283ED1204605A91AF083FF28
S315080051400122214B089509920A932B6B05F1100051
S3150800515003F00F0141F000510B900F2B0C920D91AB
S315080051600E900F9243F00052109226D90A9B08A976
S3150800517023F0005320460A931AF065FF0BA9204630
S315080051801AF061FF0123119612930F4B204611A9BD
S3150800519013931AF062FF204626F0DEFB0BE000F1BF
S315080051A02003019000930122102339462046FFF779
S315080051B0C1FE002897D015B0F0BD0EA9DFE7212063
S315080051C0F9E700BF00000404100000202DE9F04FA5
S315080051D09BB00C4690461F460546DDF89090002881
S315080051E000F0B280002900F0AF80002A00F0AC8001
S315080051F0002B00F0A980026B02EB09031B09B3EB35
S31508005200121F02F00F0600F0978000234F4A8B60AA
S31508005210C1E90023CB61404617A91AF0E6FC03460C
S31508005220002840F0858006EB090B204617992BF0DD
S315080052300F0A27F017FA5146204627F013FA404678
S3150800524002A900F095F90346002871D1204602A963
S315080052501AF0F9FE404605A91AF0C6FD03460028CD
S3150800526066D14FF00108019005A920461AF0EBFE19
S31508005270374A204608A90895CDF824800A921AF0DC
S31508005280E2FE46F00051AAEB060605F1100346F0C9
S3150800529000560B93CDF830800D910E97CDF83C80D3
S315080052A010960D99204621F000510D910BA90093F7
S315080052B01AF0C9FE20460EA91AF0C5FE019B244A1B
S315080052C01193AAF1100343F00053CDF848801393C5
S315080052D005F120031493CDF854801692139B2046AB
S315080052E043F080431393139B11A923F000531393A0
S315080052F01AF0B3FE204614A91AF0AFFE144A17A9ED
S3150800530020461795CDF8608019921AF0A6FE204619
S3150800531026F022FBAAEB0B0149440190ABEB0A02EB
S315080053200098394423F076FC019B2A6B4A442A6389
S3150800533018461BB0BDE8F08F10304A46394630444F
S3150800534023F068FC0023F0E72123F1E703020004B9
S31508005350100000202DE9FF474FF000080E461746BB
S315080053600446CDF80080002859D022B900252846E1
S3150800537004B0BDE8F087002951D032F0030902F0E5
S31508005380030A1FD04FF0E063C0E9003801230191FA
S31508005390C0F808800293C0F81C8049F0005301A9A0
S315080053A003931AF05AFE4946204627F05BF9204631
S315080053B026F0D2FA054628B14A464146304623F039
S315080053C01EFCD4E7BAF1000FD0D04FF000084FF01A
S315080053D0E063C4E900380123CDF804D00293114BE9
S315080053E0204601A9C4F80880C4F81C8003931AF063
S315080053F034FE0421204627F035F9204626F0ACFA7B
S31508005400054608B13A46D8E7009A4E44EB000135FE
S3150800541022FA03F3AA4506F8013BF7D1A6E72125A8
S31508005420A5E700BF04000020F0B50F4616461D4646
S31508005430044693B010B9212013B0F0BD0029FAD064
S31508005440002AF8D0002BF6D0002331461A463846F3
S315080054501AF070FB0028EFD1304602A91AF006FBB5
S315080054600028E9D1EB68022B0AD039683F48029A2E
S3150800547081426B6902D01830814270D19A42DAD8DB
S315080054802B68002BD7D14FF060623846C4E9002359
S31508005490A360E36101A91AF0A8FB0028CCD1019901
S315080054A0204621F4F061019127F0DCF86946284688
S315080054B01AF09BFB0028BFD12046009927F0D2F8A6
S315080054C0384609A900F054F80028B5D1204609A99C
S315080054D01AF0B9FD38460CA91AF086FC0028ABD19B
S315080054E020460CA91AF0AFFDEB684BB1284606A971
S315080054F000F03EF800289FD1204606A91AF0A3FD21
