S01F000062745F736F635F637573746F6D5F42545F416464726573732E73333747
S31508012000C00A0020053101089736030897360308E8
S31508012010854F03089736030897360308973603084A
S315080120209736030897360308973603089736030841
S3150801203097360308F4F20308EB51030897360308A9
S315080120409736030897360308973603089736030821
S315080120509736030897360308973603089736030811
S31508012060973603087D2B010863350308973603085D
S3150801207097360308973603089736030897360308F1
S3150801208097360308973603089736030897360308E1
S3150801209097360308D938010897360308973603088F
S315080120A097360308973603089736030897360308C1
S315080120B097360308F9100308151C030841DF0308BE
S315080120C03DDF0308B91303084DDF030845DF03089D
S315080120D0E91B030849DF0308551C0308C11C03084B
S315080120E09736030897360308973603089736030881
S315080120F01F4A0308973603089736030897360308D5
S315080121009736030897360308973603089736030860
S315080121109736030897360308973603089736030850
S315080121209736030897360308973603089736030840
S315080121309736030897360308973603089736030830
S315080121409736030897360308973603082D5103086F
S3150801215071F7020897360308EBDE0308F1DE030878
S315080121609736030897360308973603089736030800
S31508012170F0B5114A114C124E00F00105E3695F07EB
S3150801218013D40DB9334213D103EA00078F4207D19D
S315080121900B4A1A40002A0CBF00206FF00100F0BD5F
S315080121A0013AEBD16FF00200F9E74FF0FF30F6E79D
S315080121B06FF00100F3E700BF809698000000035016
S315080121C0020001000B4B70B5D96911F480310DD1AC
S315080121D001244FF48072084E084DF46020462C64A1
S315080121E01A61FFF7C5FF3464EC6070BD6FF001003A
S315080121F0FBE700BF00000350001003500020035006
S315080122004FF4803238B50E4B0E4C9A66E56941F6A5
S31508012210713315400122E3630B4B0021DA60022377
S31508012220606121202361FFF7A3FF10B92120FFF781
S315080122309FFF0122054BDA600DB10023E36338BD28
S315080122400090005000000350001003500020035076
S3150801225070B5134C6061E3695B071ED40E4656F8E8
S31508012260043B8D18A361AE420BD104230021212022
S315080122702361FFF77DFF58B9BDE870402120FFF7BC
S3150801228077BF08210846FFF773FF10B104232361BE
S3150801229070BD56F8043BA361E5E74FF0FF30F7E759
S315080122A0000003502DE9F84315464FF48032184BC8
S315080122B089469A6603F51C33DF690646174041F6D7
S315080122C07132DA63012203F58053DFF84C80DA6054
S315080122D055B9284601220F4BDA601FB10022A3F532
S315080122E00053DA63BDE8F88306F5005404EA0804E6
S315080122F0A41BAC4228BF2C46494622463046FFF766
S31508012300A7FF0028E6D12644A1442D1BE0E700BF1C
S31508012310009000500020035000E0FFFF000000007D
S31508012320000000000000000000000000000000009E
S31508012330002370B5404C05468AB0E36318B100889E
S3150801234023600DF0AFF93D482BF0B4F93C4E3D4BF7
S31508012350304633603C4B736026F01AFE0021304646
S3150801236018F0F0FB32A3D3E90023A062C4E90623DF
S3150801237026F019FED4E9062319431043C4E90601D8
S31508012380CDE900014FF0FF334FF0FF32A06A2BF081
S31508012390E5F902224FF0FF31A06A2BF0E4F901209A
S315080123A00CF0CCFE4FF4007300222849A06A2BF0EA
S315080123B02DFAB0F5007F38D100239422CDE90733F1
S315080123C009933C23CDE9033205939623A06A03A911
S315080123D0069318F09FFC35B3287C0DF01DFB0546C6
S315080123E0F0B9A06A2BF0F2FA0DF0C4FA0CF088FEE7
S315080123F020B14FF48070002109F010FF0CF090FE17
S3150801240020B14FF40060002109F008FF26F0F1FE23
S31508012410012018F0EDFB0E4A0E49A06A26F0B6FD1A
S3150801242028460AB070BDFF20D7E70725F8E700BFA1
S315080124300DD5015520000000300B0020690345EC3D
S315080124405C1D0020C1EF01086C1D00205C1B0020EB
S31508012450358F0308758F03080348044B834202D05E
S31508012460034B03B118477047982A0020982A002081
S3150801247000000000064B0749C91A891048BF0131F7
S31508012480491003D0044B0BB101481847704700BFE8
S31508012490982A0020982A00200000000010B5064C52
S315080124A0237843B9FFF7D8FF044B13B10448AFF3B8
S315080124B000800123237010BD4C2500200000000078
S315080124C0604C040808B5054B1BB105490548AFF32F
S315080124D00080BDE80840FFF7CDBF00BF000000003F
S315080124E0A80D0020604C0408A3F5803A704700BF88
S315080124F0174B002B08BF134B9D46FFF7F5FF00212D
S315080125008B460F461348144A121A2BF0C0FD0E4B80
S31508012510002B00D098470D4B002B00D09847002080
S31508012520002104000D000D48002802D00C48AFF325
S3150801253000801FF085FF2000290020F095FF1FF07D
S31508012540C5FD00BF000008000000000000000000F3
S31508012550C00A0020C00A00208026002000000000D2
S31508012560000000002DE9F0430368A44A23F47F43E1
S3150801257023F00703934289B006D0A14A934200F09B
S31508012580E88009B0BDE8F0834FF07E635A7A0DF111
S315080125900F018DF810201A7A06A88DF81120DA791C
S315080125A08DF812209A798DF813205A798DF814200E
S315080125B01B798DF8153011F0A7F800B1FEE704AFC5
S315080125C006253E468F4CDFF864920DF1180821F076
S315080125D013F8013D21F011F8494618F8013B17F89F
S315080125E0012B206822F068FA15F0FF05EFD10622C3
S315080125F0314606A82BF021FD30B196E803002A469C
S3150801260011F066F800B1FEE77F4E304610F0BEFFC6
S31508012610054608B37D49206822F04EFA7C492068B0
S3150801262022F04AFA20F0E8FF20F0E7FF794B7A4AD0
S3150801263000937A497923206822F03EFA78492B4695
S31508012640784A206822F038FA284600F0E1FB7649F4
S31508012650206822F031FAFEE70221307810F0D0FF27
S31508012660054608B36949206822F026FA68492068B0
S3150801267022F022FA20F0C0FF20F0BFFF654B664A20
S31508012680009366497E23206822F016FA64492B4690
S31508012690644A206822F010FA284600F0B9FB62491C
S315080126A0206822F009FAFEE7A022009003461146A7
S315080126B0307810F083FF054608B35449206822F0A4
S315080126C0FBF95349206822F0F7F920F095FF20F02D
S315080126D094FF504B504A009350498723206822F0B3
S315080126E0EBF94F492B464F4A206822F0E5F928466F
S315080126F000F08EFB4C49206822F0DEF9FEE7022144
S31508012700307810F091FF054600283FF43AAF3F496B
S31508012710206822F0D1F93E49206822F0CDF920F04F
S315080127206BFF20F06AFF3B4B3B4A00933B498B23E7
S31508012730206822F0C1F93A492B463A4A206822F024
S31508012740BBF9284600F064FB3749206822F0B4F942
S31508012750FEE72D4C0221207810F052FF054610B3F2
S31508012760284C2A49206822F0A7F92949206822F02D
S31508012770A3F920F041FF20F040FF264B264A00939B
S3150801278026499923206822F097F925492B46254A97
S31508012790206822F091F9284600F03AFB2249206880
S315080127A022F08AF9FEE70221207810F03DFF05465E
S315080127B000283FF4E6AE134C1449206822F07CF950
S315080127C01349206822F078F920F016FF20F015FF4A
S315080127D0104B114A009311499E23206822F06CF987
S315080127E00F492B460F4A206822F066F9284600F061
S315080127F00FFB0D49206822F05FF9FEE7A0000100F2
S31508012800A0000601780E00206E2A002033EF030887
S3150801281035EF030878EF03083AEF030843EF030897
S3150801282052EF03084FEF030867EF030828EF030881
S3150801283030B503687C4A23F47F4323F007039342A8
S3150801284089B040F0EE80082200211220774B10F063
S3150801285011FF044610B3764D7649286822F02CF903
S315080128607549286822F028F920F0C6FE20F0C5FE31
S31508012870724B734A009373495C23286822F01CF94A
S3150801288071492346714A286822F016F9204600F054
S31508012890BFFA6F49286822F00FF9FEE701460322BD
S315080128A014206C4B10F0E6FE044610B3604D6149E6
S315080128B0286822F001F96049286822F0FDF820F01D
S315080128C09BFE20F09AFE5D4B5D4A00935D496A23A3
S315080128D0286822F0F1F85C4923465C4A286822F008
S315080128E0EBF8204600F094FA5949286822F0E4F8F2
S315080128F0FEE7014605221620574B10F0BBFE05469A
S3150801290010B34B4C4B49206822F0D6F84A49206847
S3150801291022F0D2F820F070FE20F06FFE474B484AAD
S31508012920009348497823206822F0C6F846492B4681
S31508012930464A206822F0C0F8284600F069FA444958
S31508012940206822F0B9F8FEE70DF10F0104A810F08E
S31508012950DBFE044610B3364D3649286822F0ACF83A
S315080129603549286822F0A8F820F046FE20F045FEF1
S31508012970324B334A009333498323286822F09CF863
S3150801298031492346314A286822F096F8204600F054
S315080129903FFA2F49286822F08FF8FEE7BDF8143070
S315080129A001465BBAADF818309DF8133008228DF848
S315080129B01A30FF238DF81B30FE238DF81C309DF845
S315080129C0123018208DF81D30BDF810305BBAADF8FD
S315080129D01E3006AB10F04EFE054610B3144C1549D1
S315080129E0206822F069F81449206822F065F820F079
S315080129F003FE20F002FE114B114A0093114993235D
S31508012A00206822F059F810492B46104A206822F00E
S31508012A1053F8284600F0FCF90D49206822F04CF8D5
S31508012A20FEE709B030BD00BFA000010087EF03082B
S31508012A30780E002033EF030835EF0308C2EF0308C9
S31508012A4090EF030843EF030852EF03084FEF03081B
S31508012A5067EF0308B8EF0308BCEF030830B5214D4B
S31508012A6095B00DAC0FCD0FC495E80700032384E894
S31508012A7007008DF84D3029231B4A1C49CDE902234D
S31508012A801B4B0E22CDE9041300210DF126000691F8
S31508012A902BF0FDFA4FF48020164B07A9CDE9070361
S31508012AA009238DF824300A238DF82530124B0DAAF7
S31508012AB00A9320230B9301238DF831300F4B1048CD
S31508012AC0009302AB04F054FF04469DF832304FF4EC
S31508012AD0E130002B0CBF0321002120F0CDFD20465B
S31508012AE015B030BD1CF2030800C0055000050006EC
S31508012AF00009000824C005504D250020C00D0020FE
S31508012B00140E0020831E012B10B512D8012922D8D4
S31508012B10114B04221B6C05210020C3F3401302F05C
S31508012B20C5F90E4B1B681868A8B1BDE81040436A81
S31508012B3018478B1E012B0CD801280CD8BDE810406C
S31508012B400022054B05211B6C1046C3F3401302F006
S31508012B50ADB90129E5D910BD00C0035040280020B0
S31508012B6008B50449044805F0A9FCBDE80840FFF783
S31508012B7075BF00BF44280020380E0020014822F006
S31508012B8036B900BF140E0020014B1A6A186810479F
S31508012B90140E0020184B37B583422AD1174B1B78E0
S31508012BA03BB3C8B210F054FD054610B3144C154991
S31508012BB0206821F081FF1449206821F07DFF20F06B
S31508012BC01BFD20F01AFD114B114A0093114985236B
S31508012BD0206821F071FF10492B46104A206821F020
S31508012BE06BFF284600F014F90D49206821F064FFAF
S31508012BF0FEE703B030BD00BF400E00206D25002062
S31508012C00780E002033EF030835EF0308BBF20308FB
S31508012C1038F2030843EF030852EF03084FEF03089E
S31508012C2067EF030830B500250368584A23F47F4344
S31508012C3023F0070385B0934204460295ADF80C507C
S31508012C407ED002F5802293420ED0A2F1827293427F
S31508012C5040F09A804E4B1B78002B00F0958005B00A
S31508012C60BDE8304022F0B4BAB0F805301B2B40F06D
S31508012C708B80FF2304A91A4611E9030020F0B5FC4D
S31508012C80012814BF41F2FC15414B05F0FC0208BFAF
S31508012C9018701B21207910F003FD054610B33D4C31
S31508012CA03D49206821F008FF3C49206821F004FFCE
S31508012CB020F0A2FC20F0A1FC394B3A4A00933A498C
S31508012CC05923206821F0F8FE38492B46384A2068EE
S31508012CD021F0F2FE284600F09BF83649206821F0DB
S31508012CE0EBFEFEE7344900902379344A09683448F3
S31508012CF000F0EAF80546002846D0264C2649206801
S31508012D0021F0DAFE2549206821F0D6FE20F074FC70
S31508012D1020F073FC224B234A00932349622320683F
S31508012D2021F0CAFE21492B46214A206821F0C4FE1A
S31508012D30284600F06DF81F49206821F0BDFEFEE720
S31508012D40B0F80530B7EE047A07EE903AF8EE677AEE
S31508012D50B0F8073067EE877A013307EE103AB8EE16
S31508012D60C77A67EE877AB1EE047A67EE877AFAFE52
S31508012D70677AFCEEE77A17EE903AB3F57A7F38BFB1
S31508012D804FF47A730C4A136005B030BDA0000602F1
S31508012D906D250020780E002033EF030835EF030870
S31508012DA0CAF2030838F2030843EF030852EF03088F
S31508012DB04FEF030867EF03084C280020952B0108FD
S31508012DC0400E0020012208B5074B1A700022074B56
S31508012DD01A700422064B1A701F22064B1A7004F049
S31508012DE027FC054B186008BD712A00206E250020B6
S31508012DF0702A00206F2A0020780E0020024B034912
S31508012E00186821F059BE00BF780E0020EAF20308BF
S31508012E1070B50C4C0C490646206821F04DFE04F0AD
S31508012E2007FC0546206804F0F7FB3046FFF7E6FF86
S31508012E30284604F0F1FB20680449BDE8704021F0FA
S31508012E403BBE00BF780E0020ECF20308EEF2030841
S31508012E5038B5054620F03BFC00230B4A14685CB1E3
S31508012E60AC4206D1A96A6BB1996220F036FC012001
S31508012E7007E02346A46AF2E7002DF3D020F02DFCE3
S31508012E80204638BD1160F0E77C0E002010B50446D7
S31508012E90B0B105F08DFF2046FFF7DAFF10B194F8BF
S31508012EA02C300BB9002010BD064C2368002BF9D035
S31508012EB020F00DFC2368013B236020F00EFCF1E7AE
S31508012EC02220F0E7800E00202DE9F04385B0054663
S31508012ED0914698460E469DF8307009B9002F5CD187
S31508012EE02846FFF7D3FF0446002836D185F82C007B
S31508012EF0686306F06DF8864233D906F009F821466B
S31508012F00844640F2E7304FF47A720023E6FB0C015F
S31508012F101EF04CFF4FF0FF3200231EF047FF2B46F1
S31508012F20E88611462846CDE900441D4A22F0A9F84B
S31508012F30044690B9C5E9089885F82D702E6320F0E6
S31508012F40C6FB184A136833B31A469B6A002BFBD192
S31508012F5095620023AB6220F0C0FB204605B0BDE8B0
S31508012F60F08347B12B4631462846CDE900440C4A41
S31508012F7005F0F2FFDCE7304603A905F0CFFF04466A
S31508012F800028EAD12B462846CDE90077044A039959
S31508012F9022F053F8CCE71560DBE72124DDE700BF13
S31508012FA0A92F01087C0E002091F82C3013B50C4688
S31508012FB083B98B8ECA8E93420ED243B9CDE90033BB
S31508012FC020460B46124A4FF0FF3122F01AF8A38E1B
S31508012FD00133A38602B010BD52B191F82D3093B1D9
S31508012FE001230093D1E908232046096BFFF76CFFFB
S31508012FF0012384F82C30074B1A6801321EBF1A6860
S3150801300001321A60E6E7084605F0D2FEF0E700BF8E
S31508013010A92F0108800E00202DE9F041154E3368CD
S3150801302033B34FF00008144F20F051FB05463C68B6
S3150801303024B92846BDE8F04120F04FBB94F82C305E
S31508013040A3B1336884F82C8013B13368013B33602C
S3150801305094F82D3013B92046FFF7FAFE284620F0DA
S315080130603CFBD4E9083120469847DDE7A46ADFE747
S31508013070BDE8F081800E00207C0E0020034B1B6802
S31508013080002B14BF04200120704700BF800E0020CA
S31508013090024B1868B0FA80F040097047800E00208C
S315080130A008B5034821F054FCBDE8084020F010BAE1
S315080130B0F0050408014821F04BBC00BFF0050408DF
S315080130C007B5082020F013FB02238DF80030054BC5
S315080130D06846019320F094FA082003B05DF804EBE2
S315080130E020F010BB006A18100348044A0449121A52
S315080130F0921020F0D1BA00BF7021010830230108CF
S315080131008026002008B500F02FF8FFF7EDFF124BD7
S3150801311012498B4212D30020114B12498B4218D304
S31508013120FFF7E6F9186850F82240586840F8224037
S31508013130013298688242F5D30C33EAE70022F8E7B0
S315080131401C6844F8220001325C68A242F8D30833AD
S31508013150E4E70022F8E700BF684C0408744C040849
S31508013160744C0408744C04084FF48041124B134AFA
S3150801317070B59A60D3F88820114D42F47002C3F8ED
S315080131808820104A05F5005491664FF0FF322266F1
S315080131900D4A62660222C3F8D020BFF34F8FBFF3F0
S315080131A06F8F4FF44036002004F014FA0020E660D1
S315080131B004F002FA2E6170BD00ED00E0002001085E
S315080131C00080004400900050F7FF3700014B186853
S315080131D0704700BF54280020014B1860704700BF94
S315080131E054280020084B1B6F03F00703022B04D059
S315080131F0032B05D0012B05D0FEE7044B1868704751
S31508013200034BFBE703487047008000505428002011
S315080132105C280020002D310108B5FFF7E3FF054BB7
S315080132201B6FC3F303330133B0FBF3F0024B186092
S3150801323008BD00BF00800050502800200048704794
S3150801324000B4C404014B1868704700BF5C2800200D
S31508013250054B1860054B1B6F03F00703032B01D1C0
S31508013260FFF7DABF704700BF5C28002000800050D6
S3150801327000487047002D31014FF0B4439868C0F3F8
S3150801328004400C280AD8DFE800F00B0909090909E6
S31508013290072119091B1D1F000F4870470020704799
S315080132A09B6803F04073B3F1807F11D0B3F1007FBF
S315080132B010D00A4A002B08BF1046704708487047C5
S315080132C008487047084870470848704708487047D3
S315080132D00848704708487047405DC60000093D0028
S315080132E0C0EA210180BA8C010048E801005A62024D
S315080132F00024F40080841E0040420F00014B186828
S31508013300704700BF582800204FF000639B6A03F1FD
S315080133107842B2F5903F03D21968064A914203D022
S315080133200023037083607047012202709A689B69C3
S315080133304260F7E707B0CD5E4FF000639B6A10B5B0
S3150801334003F17842B2F5903F11D21968094A9142C0
S315080133500DD1094C227812F0FD0F01D0002010BDC5
S31508013360DB6998470028FAD101232370F6E74FF461
S315080133708170F4E707B0CD5E6F2500204FF000534A
S31508013380014A1A6004F0F4B802020FF0034B5868B8
S31508013390C0F30800003818BF0120704700ED00E0AF
S315080133A013B500242948019421F0D2FA01230422F5
S315080133B00321204601F07AFD204620F04BFA01222E
S315080133C0234B0520C3F8442401A921F0B7FA0028A4
S315080133D039D1204BD3F8F02042F00102C3F8F0208E
S315080133E0D3F8FC2042F08072C3F8FC201A4AA3F5F0
S315080133F05D431A60019B194A03F5D52303F2FC4381
S31508013400B3FBF2F3164A013B13610223C2F8F0300B
S315080134104FF48073C2F804334FF06043114AC3F87E
S31508013420B02F114AC3F8802ED3F8002E42F48072C9
S31508013430C3F8002EFF2283F82020D3F8002E22F4A9
S315080134408072C3F8002E02B010BD00BFF005040853
S3150801345000D0035000ED00E0FF030040F8590D00CD
S31508013460000004E055CEACC5090001004FF06043E9
S31508013470D3F8802E30B5D20715D501240B4D8440DB
S31508013480D5F8FC2042F08072C5F8FC20D3F8002E4E
S315080134902243C3F8002E53F82020002AF0D003F85F
S315080134A02010002030BD1120FCE700BF00ED00E030
S315080134B02DE9F04F9A46564B85B01B7806460F46BE
S315080134C01546DDF83C909DF844B0DDF85080002B98
S315080134D000F09780072A00F296800E9B002B00F0D9
S315080134E09280B9F1000F00F08E80129BB3F5006F40
S315080134F000F38980012803D1109B002B00F08380FB
S31508013500444B03EB05131B7B002B7ED0424C102248
S31508013510002168462AF0BBFD04EB45141022A7BB1F
S31508013520394620462AF0B3FD43F210036380BBF106
S31508013530000F03D1E37843F00303E370364A0E9B89
S3150801354002EB451CCCE90193129B6901581E9DF8B3
S315080135504C30C0F30A0003F003039B0643EA001E3E
S3150801356053582E48012E00EA03004EEA0003CDF80F
S3150801357000A0535017D0B8F1000F2ED19CF8023095
S3150801358068F304138CF8023027E0002120462AF05C
S315080135907EFD4FF444736380BBF1000FCED1E3780F
S315080135A043F03003C9E713230CF1100ECCF80C30A5
S315080135B09CE80F008EE80F006FF00301DCF81C2071
S315080135C0109B61F39F02012FCCF81C20CCF8143014
S315080135D003D1CCF81890CCF8043000270D4A2901FC
S315080135E002EB051342F80180159A28465A60694686
S315080135F022469F605E7301F0EDFC384605B0BDE8D2
S31508013600F08F0748FAE70748F8E70748F6E700BFE3
S3150801361070250020840F0020840E00200F80FFF300
S31508013620028000F0018000F0078000F038B5124BE7
S3150801363005461B78DBB1E0B120F049F80F4A0023B3
S315080136401146147B54B92B6001251A0101EB0313AA
S315080136501D738C5020F041F8204638BD0133082BE4
S3150801366002F11002EDD120F038F80548F5E70548D2
S31508013670F3E70548F1E700BF70250020840F002015
S31508013680048000F0028000F0018000F038B520F0D7
S315080136901EF8002305460B4A147B6CB90133082B27
S315080136A002F11002F8D101F041FC074B28461C70C3
S315080136B020F013F8204603E0284620F00EF80348C8
S315080136C038BD00BF840F002070250020058000F05A
S315080136D00D4B10B51B78044693B1072812D81FF075
S315080136E0F6FF0A4B03EB04131A7B2AB100241C7359
S315080136F01FF0F3FF204610BD1FF0EFFF0448FAE75D
S315080137000448F8E70448F6E770250020840F0020EE
S31508013710068000F0028000F0018000F0154B13B519
S315080137201868002301908DF804301FF0D0FF124B62
S315080137301C7824B11FF0D1FF104802B010BD012238
S315080137401A701FF0CAFF0E4B01A81C731C7783F869
S315080137502C4083F83C4083F84C4083F85C4083F85E
S315080137606C4083F87C4008238DF8073001F002FC91
S315080137702046E2E744F3030870250020038000F0A1
S31508013780840F00200A4A08B512785AB107280BD8BF
S31508013790084A02EB00131B7B43B1002101F0DCFB55
S315080137A0002008BD0448FCE70448FAE70448F8E79E
S315080137B070250020840F0020028000F0018000F0AF
S315080137C0078000F00A4A08B512785AB107280BD8BB
S315080137D0084A02EB00131B7B43B1012101F0BCFB34
S315080137E0002008BD0448FCE70448FAE70448F8E75E
S315080137F070250020840F0020028000F0018000F06F
S31508013800078000F00A4A08B5127852B107280AD883
S31508013810084A02EB00131B7B3BB101F027FC002091
S3150801382008BD0548FCE70548FAE70548F8E700BF7B
S3150801383070250020840F0020028000F0018000F02E
S31508013840078000F00D4B1B7893B1072812D889B170
S315080138500B4B03EB00131B7B73B10A4B1A6D012348
S315080138608340134214BF0123002300200B707047C5
S315080138700548704705487047054870477025002078
S31508013880840F002000000450028000F0018000F03F
S31508013890078000F00B4A10B512780C4662B107286A
S315080138A00CD859B1084A02EB00131B7B43B101F04E
S315080138B0EFFB2070002010BD0448FCE70448FAE736
S315080138C00448F8E770250020840F0020028000F0E4
S315080138D0018000F0078000F0184B2DE9F0411F6DBB
S315080138E05B6D1F4000D5FEE701260025144CDFF865
S315080138F05880374218D02368C8F85060A3B1A16828
S31508013900284601316268A1609847637B012B0BD178
S3150801391050B90C4B03EB45131A7B60F341021A733A
S315080139201A7F60F341021A770135082D4FEA4606D8
S3150801393004F11004DDD1BDE8F08100BF0000045098
S31508013940840F0020840E002000200450024B1968C1
S31508013950024B186816F002BD602800208028002056
S3150801396070B59400224605460E462BF0D5FA431C3F
S315080139700AD058B92246314628462AF05EFB002865
S31508013980034808BF002070BD0248FCE70248FAE771
S3150801399010E000F021E000F024E000F010B5044644
S315080139A02BF0BEFA431C10D088B901F0FFFB234661
S315080139B020F003002044984201D1002010BD53F89D
S315080139C0042B0132F7D00348F8E70348F6E7034822
S315080139D0F4E700BF0EE000F021E000F024E000F07B
S315080139E008B51FF06DFE014B186008BDF4160020DE
S315080139F0014B18681FF068BEF4160020044BD3F873
S31508013A008420D206FBD4D3F88400C0F38110704712
S31508013A10004000502E4B98424AD022D82D4B98424E
S31508013A2040D014D82C4B984239D00AD82B4B9842FF
S31508013A3032D02B4B98422FD02A4B98422CD00020BB
S31508013A407047294B9842FAD1284B186F7047284B73
S31508013A5098422AD0274B9842F1D1244BD3F88000BB
S31508013A607047254B98422BD009D8244B984223D02E
S31508013A70234B9842E3D11D4BD3F88C007047214B59
S31508013A80984221D003F5740303F510539842D6D111
S31508013A90164BD3F898007047144B986D7047134B23
S31508013AA0586E7047114B586F7047104B986F704797
S31508013AB00E4BD3F8840070470C4BD3F88800704737
S31508013AC00A4BD3F890007047084BD3F89400704717
S31508013AD00048E8010024F400C0CF6A0080841E0073
S31508013AE000093D0040420F00405DC6000080E00F1E
S31508013AF0C0EA210180BA8C01007E560380D54302B3
S31508013B00006CDC020090D00338B5104B0546D3F89B
S31508013B1080300C4603F00303022B0BD0032B0DD088
S31508013B20012B0FD1FFF75EFB0E2305B1286004B107
S31508013B30236038BDFFF7A0FB0723F6E7FFF746FB2F
S31508013B400623F2E700231846EFE700BF008000507E
S31508013B5038B5184B0546D3F820010C4600F0070086
S31508013B60062823D8DFE800F0040A0E16121A1E00EA
S31508013B70012305B1286004B1236038BDFFF726FB90
S31508013B800523F6E7FFF75EFB0323F2E7FFF774FB6E
S31508013B900723EEE7FFF76CFB0223EAE7FFF716FBBD
S31508013BA00623E6E7FFF74EFB0423E2E70023184660
S31508013BB0DFE700BF0080005038B5174B0546D3F83C
S31508013BC028310C4603F00703013B052B20D8DFE813
S31508013BD003F003131B0F0B17FFF7F8FA052305B1BB
S31508013BE0286004B1236038BDFFF7F0FA0623F6E72B
S31508013BF0FFF742FB0723F2E7FFF724FB0323EEE770
S31508013C00FFF720FB0423EAE7FFF732FB0223E6E787
S31508013C1000231846E3E700BF0080005073B50D4640
S31508013C200021114B0191D3F88041064604F00304A3
S31508013C30022C13D0032C0CD0012C13D101A8FFF7A9
S31508013C4087FF10240EB1019B336005B12C6002B0C9
S31508013C5070BDFFF711FB07240190F3E7FFF708FB97
S31508013C600190EFE70C46EDE700800050002337B5D9
S31508013C700193164B0546D3F820320C4603F0070389
S31508013C80042B21D8DFE803F0030B11161B000123CF
S31508013C900DB1019A2A6004B1236003B030BD002139
S31508013CA001A8FFF789FF1223F2E7FFF7E5FA0723D1
S31508013CB00190EDE71FF0FEFC0A230190E8E7FFF704
S31508013CC01DFB09230190E3E70023E1E7008000508B
S31508013CD038B5104B0546D3F840310C4603F00303BB
S31508013CE0022B0BD0032B0DD0012B0FD11FF0E2FCB9
S31508013CF00A2305B1286004B1236038BDFFF7FEFA2F
S31508013D000923F6E71FF0D9FC0C23F2E7012300206B
S31508013D10EFE700BF00800050002337B50193164B2B
S31508013D200546D3F860320C4603F00703013B032B23
S31508013D301FD8DFE803F0020E1914002101A8FFF7C6
S31508013D4007FF10230DB1019A2A6004B1236003B05D
S31508013D5030BD002101A8FFF7BBFF1123F2E7FFF7EA
S31508013D608BFA07230190EDE7FFF782FA0223019008
S31508013D70E8E70023E6E700BF00800050002337B5D7
S31508013D800193164B0546D3F894320C4603F0070304
S31508013D90013B032B1FD8DFE803F0020E191400219B
S31508013DA001A8FFF7D5FE10230DB1019A2A6004B1C7
S31508013DB0236003B030BD002101A8FFF789FF112355
S31508013DC0F2E7FFF759FA07230190EDE7FFF750FAF3
S31508013DD002230190E8E70023E6E700BF00800050D0
S31508013DE038B5144B0546D3F800020C4600F0070017
S31508013DF004281BD8DFE800F003090D11150001237B
S31508013E0005B1286004B1236038BD1FF053FC0A23AD
S31508013E10F6E7FFF773FA0923F2E71FF04EFC0C23C6
S31508013E20EEE7FFF7F9F90F23800AE9E700231846B9
S31508013E30E6E700BF0080005038B5144B0546D3F8B5
S31508013E4008020C4600F0070004281BD8DFE800F03A
S31508013E5003090D111500012305B1286004B123607A
S31508013E6038BD1FF027FC0A23F6E7FFF747FA0923AF
S31508013E70F2E71FF022FC0C23EEE7FFF7CDF90F233B
S31508013E80800AE9E700231846E6E700BF00800050EC
S31508013E9038B5104B0546D3F840320C4603F00303F8
S31508013EA0022B0BD0032B0DD0012B0FD11FF002FCD7
S31508013EB00A2305B1286004B1236038BDFFF71EFA4D
S31508013EC00923F6E71FF0F9FB0C23F2E7012300208B
S31508013ED0EFE700BF0080005038B5104B0546D3F810
S31508013EE060310C4603F00303022B0BD0032B0DD0D4
S31508013EF0012B0FD11FF0DEFB0A2305B1286004B19F
S31508013F00236038BDFFF7FAF90923F6E71FF0D5FB59
S31508013F100C23F2E701230020EFE700BF00800050E1
S31508013F20B0F5207F1FD009D8B0F5007F15D003D88A
S31508013F3068B1B0F5C07F0AD000200CE0B0F5607F0B
S31508013F40FAD10B4BD3F88000C0F3011003E0084BFC
S31508013F50186FC0F3033001307047054BD3F8900052
S31508013F60C0F30460F7E7024B186FC0F38020F2E74D
S31508013F700080005002464FF48030104B10B5986609
S31508013F800020FFF7CDFF504341F671320C4BDC6937
S31508013F90DA635A6804F4803422F4401259B909499B
S31508013FA0884294BF00200120000502435A600CB1E3
S31508013FB00022DA6310BD0449F2E700BF0090005001
S31508013FC000000350005A6202002D3101430905D051
S31508013FD0012B0CD0022B084B18BF002300F01F0041
S31508013FE039B103F58053012282401A607047034BA9
S31508013FF0F4E703F50053F6E7688000506480005043
S315080140001FB5002180280446CDE9001100F0A580DE
S3150801401035D85E2846D85E2844D8DFE800F0A243A2
S315080140204343434343434343434343434343434351
S315080140304343434343434343434343434343A2AA7B
S31508014040A2AABABABABABAAAC44DDA714DAAAAAA22
S315080140504343434343434343AAAAAA79E4AA4343AE
S315080140604343434343434343434343BAA2A2A2DFE1
S315080140704D4DE9885EBF434343434399A200B0F5DA
S31508014080B06F00F090802DD8B0F5207F71D00CD894
S31508014090B0F5C07F65D0B0F5007F65D0B0F5807FFB
S315080140A000F08680009804B010BDB0F5607F6BD033
S315080140B00DD8B0F5407FF5D1FFF7AEF802464FF4BB
S315080140C02070FFF72DFFB2FBF0F252085AE0B0F567
S315080140D0806F5ED0B0F5A06FE4D100216846FFF786
S315080140E0C5FDDFE7B0F5106F78D016D8B0F5E06FEB
S315080140F079D00AD8B0F5C06F6BD0B0F5D06FD1D1F1
S3150801410000216846FFF76CFECCE7B0F5F06FC9D120
S3150801411000216846FFF7E0FEC4E7B0F5406F3DD0E1
S3150801412013D8B0F5206F63D0B0F5286FBAD1002146
S31508014130324B0391D3F8703203F00303012B02D1FA
S3150801414003A8FFF7C5FD039B3CE0B0F5486FA9D16D
S3150801415000216846FFF712FEA4E7FFF743F800902F
S31508014160A0E7FFF759F8FAE7FFF73CF802462046B9
S3150801417004E0FFF751F802464FF42070FFF7D0FE2E
S31508014180B2FBF0F200928DE701A8FFF7BDFC019A98
S31508014190EDE700216846FFF7DBFC83E70021684667
S315080141A0FFF70AFD7EE700216846FFF737FD79E745
S315080141B04FF0E02302911B695B0705D5FFF72CF841
S315080141C00290029B00936DE703A902A8FFF780FD01
S315080141D0F7E700216846FFF77BFD63E7002168469C
S315080141E0FFF72AFE5EE700216846FFF751FE59E709
S315080141F000216846FFF790FD54E700BF0080005094
S3150801420008B58020FFF7FCFE034B98429EBF4FF48A
S315080142108032024B1A6708BD005A620200A000509C
S315080142201FB503460020B3F5807F019000F0C180D9
S3150801423064D85D2B55D84C2B07D82D2B48D8232B62
S315080142402CD8019805B05DF804FB4D3B102BF8D826
S3150801425001A252F823F000BFA9430108434201080D
S3150801426043420108434201085F43010843420108EA
S31508014270434201082D4401087D43010823430108EF
S315080142802344010843420108434201084342010805
S31508014290434201084342010837440108243B092BDC
S315080142A0CFD801A252F823F0A9430108A94301086E
S315080142B0A9430108A9430108A94301084342010882
S315080142C09F430108434201083F430108DF430108B0
S315080142D03D2B7FD03E2BB4D1002001A9FFF7D8FD95
S315080142E0AFE7802BADD1594B1B6F03F00703013B99
S315080142F0032BA6D8DFE803F0514E858DB3F5F06F91
S3150801430068D021D8B3F5B06F49D00FD8B3F5607F1F
S3150801431000F0838095D3B3F5806F45D0B3F5A06FD0
S315080143208FD1002001A9FFF7A1FC8AE7B3F5D06F69
S3150801433055D0B3F5E06FCFD0B3F5C06F81D100206A
S3150801434001A9FFF7C5FC7CE7B3F5206F6ED00BD842
S31508014350B3F5086F48D0B3F5106F7FF472AF00203C
S3150801436001A9FFF769FD6CE7B3F5406F59D0B3F5BD
S31508014370486F60D0B3F5286F7FF463AF334BD3F83A
S31508014380703203F00303012B5AD0022B0CBF1523FD
S31508014390002300E00523019353E70223FBE70020EE
S315080143A001A9FFF73BFC4CE7002001A9FFF7D0FB69
S315080143B047E74FF0E02302901B695B0705D5FEF737
S315080143C02BFF0D230393039BE5E703A902A8FFF738
S315080143D07FFCF8E7002001A9FFF77EFD31E7002001
S315080143E001A9FFF7FDFC2CE7184BD3F8003103F0C0
S315080143F00303022B07D0032B09D0012B0BD1FEF7A0
S3150801440021FF0323C7E7FEF779FF0923C3E71FF057
S315080144104FF90823BFE70123BDE701A9FFF774FB9D
S315080144200FE7002001A9FFF7C7FB0AE7002001A94A
S31508014430FFF772FC05E7002001A9FFF79FFC00E7DB
S31508014440002103A8FFF744FC1123A4E700800050CC
S315080144504FF48032074B0849586E03F580535A6664
S315080144604B6A23F001034B62C3035CBF034B5A66D5
S31508014470704700BF0080005000C0075000A00050E0
S3150801448008B5FFF7CDFE092811D00A38012802D947
S315080144904FF6FF7008BD4FF48002064B5A6603F5C6
S315080144A0D8335B6ADB07F3D54FF4FA70F2E7024BB0
S315080144B01888EFE7009000505C2A002008B5FFF73E
S315080144C0AFFE03280ABF024B4FF6FF70188808BDD6
S315080144D05A2A002038B504468020FFF7A1FE032892
S315080144E000F083804FF48012524B4FF0A0615A6658
S315080144F045F60E02504BC3F88020504A91624FF49C
S31508014500803102F5805291629A6DD203FCD4996D7D
S3150801451011F08041FBD1D4E90002120542EA00629A
S31508014520E07B0243207B42EA0042607B42EA00329A
S31508014530A07B42EA80121A619869D4E904521206EC
S3150801454042EA856200F000400243A07EE57E02430E
S31508014550207E42EA0042607E42EA00229A611A6A95
S31508014560E06922F00F0242EA8502354D00283DD165
S315080145701A6294F82420996A94F82000D2002940F6
S3150801458042EA40120A4394F8211042EA011242F41F
S3150801459080329A622B49284A936D31EA0303FBD18B
S315080145A04FF08071254881621369A56823F4700369
S315080145B043EA055313614FF00043836194F82230AF
S315080145C00BB9214B996294F823303BB94FF48032E9
S315080145D01D4B9A62184A936D5B00FCD494F82530FA
S315080145E01BB1154B194AC3F8802038BD024342F066
S315080145F0080202281A6208D119614FF40852996112
S3150801460013484FF47F411FF0D8F80B4994F822302C
S315080146108A6A94F820001B062A4043EA401313438A
S3150801462094F8242043EAC20394F8232043EA024378
S315080146308B62D3E7009000500040005A0050005AA0
S31508014640C7FFFEFE030001000060005AF1A7FFFF45
S315080146503440005A70B5194CFF28A66A2BD8A36DA9
S315080146604FF0807113F4803F18BF4FF48032144B1A
S3150801467018BF9A629962134AA36992F9005023F402
S315080146807F03054423F47F4343EA002385F30805A2
S3150801469043EA0543A36132460B481FF08EF8A36D22
S315080146A0DB0301D4002070BD32464FF48031064841
S315080146B01FF083F8F6E72120F5E700BF0040005A0E
S315080146C00050005A722A00202840005A014B93F9DB
S315080146D000007047722A00204FF4803311481249AE
S315080146E0826A8B62836D03F00303032BFAD14FF0C1
S315080146F080730E488B620B4B996D30EA0101FBD131
S31508014700012009490865996D8907FCD4054B996DFE
S315080147108807FCD5996D8907FCD5054905481FF019
S315080147204CB800BF0040005A0050005A030001006F
S31508014730000001012840005AF0B5D0E901434FF4C1
S3150801474000061A4A4178057856664FF4D15602276B
S3150801475002F5B8325662164E4F2977604FF00107B7
S3150801476028BF4F2106F5805677601669F603FCD4F3
S3150801477041EA052151611B01417B43EA04230B43AD
S31508014780017B43EA41039360C37B817B1B0143EAB7
S315080147904113417C0B43017C43EA41035360837C0B
S315080147A013B16FF4D1535362F0BD00BF00900050AE
S315080147B000100250014B1880704700BF5C2A002088
S315080147C0014B1880704700BF5A2A00204FF4800217
S315080147D008B5184B5A660223174A5360936813F4AF
S315080147E08033FBD1012822D1FEF72CFD134B9842C9
S315080147F015D003F5122303F5F863984213D0104B2D
S3150801480000EB8002400AB3FBF0F3520A0A49CA6276
S315080148100B6301234B620022074B5A6008BD45F61C
S315080148207A13084AF2E745F61A03074AEEE753628E
S31508014830F1E700BF009000500040025000F0490225
S3150801484064666666D8B80500BBCF0500B0F5207F5B
S3150801485010B50C465DD008D8B0F5007F4ED003D808
S31508014860C0B1B0F5C07F15D010BDB0F5607FFBD1E2
S315080148702C4B4C1ED3F8FC202B4912F0807F4FEAB3
S31508014880041427D1D1F8803023F030032343C1F82B
S315080148908030E9E71EF0A0FF1EF0ACFF4FF480312F
S315080148A0224B214A1967136F013C23F4704343EAEB
S315080148B004331367FEF7B0FC0446FFF79FF8C0F10F
S315080148C0020120461EF090FF00F042F8BDE81040B4
S315080148D0FFF796BCD3F8FC2022F08072C3F8FC20BF
S315080148E0D1F8802022F030022243C1F88020D3F883
S315080148F0FC2042F08072C3F8FC20B5E70A4A4C1E38
S31508014900D2F8903023F0F85343EA0463C2F89030A2
S31508014910AAE7054A4C1E136F23F4806343EA8423EE
S315080149201367A1E700ED00E00080005000900050F9
S3150801493008B50121022000F06DF91EF04DFF1EF0A9
S3150801494059FF4FF48032014B1A6708BD0090005099
S3150801495008B54FF4C070FFF753FBBDE8084004499A
S31508014960884294BF012102214FF42070FFF76EBFE0
S3150801497080F0FA024FF4C02270B50546FFF74AF8EF
S31508014980314B04465A6603F598335A68012A04D10D
S315080149902E494A605A689207FCD48020FFF740FCEA
S315080149A0052807D11EF018FF1EF024FF4FF48032A8
S315080149B0254B1A67264B24F040749D4230D0254B6F
S315080149C09D4230D0FEF702FC8542064603D90121F5
S315080149D0284600F05FF9204BDA6812F0060FFBD182
S315080149E099689C609A68624012F4F81F1ED128469D
S315080149F0FEF7F2FB8020FFF713FC05280DD1FEF721
S31508014A000BFC0446FEF7FAFFC0F1020120461EF030
S31508014A10EBFEFFF79DFFFFF7F3FBAE420CD270BD2D
S31508014A2044F00074CEE744F08074CBE780209960A7
S31508014A30FFF7F6FB052805D0BDE8704001210020E7
S31508014A4000F028B93546DAE70090005000E0015039
S31508014A5040420F0080841E0000000150304B314A4D
S31508014A60984251D020D8A3F5B703A3F558639842C5
S31508014A7046D00DD82C4B984231D02C4B984239D080
S31508014A802B4B4FF4002198421DD00023516622E09A
S31508014A90284B4FF400219842F7D1274BD3F8BC3065
S31508014AA0516623F0407316E0244B984230D0244BCC
S31508014AB0984231D0234B4FF400219842E5D11E4B41
S31508014AC0D3F8C830ECE71C4BD3F8A030516623F075
S31508014AD0407343F000734FF0B442936070474FF44C
S31508014AE00021154BD3F8A030516623F0407343F0EB
S31508014AF08073F0E7104BD3F8A0304FF40021CFE7CD
S31508014B000D4BD3F8B830F8E70B4BD3F8C030F4E7C0
S31508014B10094BD3F8CC30F0E7074BD3F8D030ECE7A4
S31508014B20C0EA21010090005080841E0000093D0062
S31508014B3040420F000024F4000080E00F0048E8011D
S31508014B40005A620280BA8C01024A536B0342FCD1B5
S31508014B50704700BF00400950044A4178536F23F457
S31508014B60407343EA01235367704700BF0040005072
S31508014B700E4A10B51369044643F00403136103F0A2
S31508014B80E9FE1EF053FE0A4B5B6E5B0142BF094B01
S31508014B90094AC3F8202430BF1EF049FE03F014FF6A
S31508014BA01CB9BDE81040FEF737BB10BD00ED00E0AB
S31508014BB00080005000E003500000FF0F0C4A10B5BA
S31508014BC01369044643F0040313610A4B5B6E5B01E8
S31508014BD042BF094B094AC3F8202403F0BBFE30BF84
S31508014BE003F0F2FE1CB9BDE81040FEF715BB10BD77
S31508014BF000ED00E00080005000E003500000FF0FC8
S31508014C00034A0179D36E23F030030B43D366704709
S31508014C1000400050F8B504461C4BD3F88420D10651
S31508014C20FBD4D3F88430C3F381139C422CD0FEF70E
S31508014C30D9FA012C064602D121461EF0D5FD1EF0F1
S31508014C403FFD4FF00072124B07465A6620461EF08A
S31508014C50F1FD4FF480630D4D621E93402B676B6E19
S31508014C609A0103D4D5F884309B060AD538461EF036
S31508014C702BFD022C08D13046BDE8F84000211EF074
S31508014C80B3BDD5F88430EAE7F8BD00BF004000504F
S31508014C900060005010B50C4608B9FEF7A3FA074B99
S31508014CA021461B783BB1064B984204D80120BDE842
S31508014CB01040FFF7AFBF0220F9E700BF71250020BA
S31508014CC0005A62020278034B012100201A70FFF78D
S31508014CD0E1BF00BF712500204FF0004238B5244BD3
S31508014CE0244C5A664AF6CD33656C014605F0010532
S31508014CF0236428BB0120FFF727FF6368DB0715D567
S31508014D001D4B586008461D4B226BD2070CD498429E
S31508014D1008D1072415B1174B194A1A6428F036FD2C
S31508014D20204638BD0130EFE79842F2D00024F1E77A
S31508014D300132236B13F0080305D08A42F8D1E8E75C
S31508014D4000220E49F5E78A42E3D020210A4A9162F8
S31508014D500121A2F5805251600649084A886A8006EF
S31508014D6003D49342D5D00133F8E79342DDE700BF78
S31508014D7000900050004009500060095040420F0061
S31508014D803254FFFF4FF0004238B5164B01465A66BA
S31508014D904AF6CD33144C154A656C236443780B20C7
S31508014DA05B0043F00103D363FFF7CEFE63688A789D
S31508014DB023F4F87343EA02136360CA784B7943EA2A
S31508014DC00223A3600A798B7943EA022323610878CF
S31508014DD0FFF782FFEB0744BF054B236428F0D6FC97
S31508014DE0012038BD00900050004009500040005095
S31508014DF03254FFFF4FF00042124B70B55D6E03F55A
S31508014E0080535A664AF6CD3304460F4980204E6CC4
S31508014E100B64FFF799FE0B6A23F00F030F2C94BF5F
S31508014E20234343F00F030B62F30744BF074B0B649D
S31508014E30002DA2BF4FF00042054B5A6628F0A6FC8A
S31508014E4070BD00BF00800050004009503254FFFF7A
S31508014E5000A000504FF00042104B70B55D6E03F58F
S31508014E6080535A664AF6CD3304460D4980204E6C66
S31508014E700B64FFF769FE0B6A23F4F85343EA04232C
S31508014E800B62F30744BF074B0B64002DA2BF4FF01B
S31508014E900042054B5A6628F079FC70BD0080005027
S31508014EA0004009503254FFFF00A000502DE9F0419F
S31508014EB005460F461E4690464AB101233022194C33
S31508014EC08B4002FB004436B304F5825423600F215C
S31508014ED0072F05EB450388BFA7F108044FEA03131B
S31508014EE0114895BFBC00A40004330C3308FA04F238
S31508014EF0A14018441EF09FFCB8F1000F09D1012307
S31508014F003021084ABB4001FB05223EB102F5825217
S31508014F101360BDE8F08104F50154D7E702F50152A3
S31508014F20F6E700BF00C0035030C0035010B5152086
S31508014F3002F030FB0024FF22064B21465C65202047
S31508014F409A625C60FFF742F82146BDE810402120CD
S31508014F50FFF73CB800000450044A054B002908BF76
S31508014F601346012282401A60704700BF4010045060
S31508014F704020045010B5012104462020FFF726F8E9
S31508014F8001212120FFF722F80122114B15205A6031
S31508014F90227812069A606178A27842EA01429A61F9
S31508014FA0FF229A6200229A631A644FF000425A65F8
S31508014FB04FF0FF3203F500531A6502F00BFB15207B
S31508014FC0E17802F015FBBDE81040152002F0F4BAAD
S31508014FD000000450F8B50125C3B2D1F800E091F8F4
S31508014FE00AC00F7B0C469D40CB7A1D491D4E0D65A7
S31508014FF0810001F1A04101F58821C1F804E04FF0D3
S31508015000300E0EFB00601B05617B43EA0C4343EA45
S31508015010475322F003020166C36502671EF057FB78
S31508015020114B5D65237A13B1336C2B433364637A71
S3150801503013B1B36B2B43B3632279A37943EA0243D2
S31508015040074A93616179E37943EA014306498B612A
S31508015050044B55639D64BDE8F8401EF03EBB00BF96
S3150801506000200450000004500010045010B501241B
S31508015070C0B284401EF02BFB044B5A6D22EA04028F
S315080150805A659C62BDE810401EF027BB000004501B
S3150801509010B50124C0B284401EF019FB074BDA6A29
S315080150A0224208D15B6B9C430CBF012400241EF0ED
S315080150B014FB204610BD0024F9E700BF0000045088
S315080150C04FF48032054B9A6641F6713203F51C336B
S315080150D0DA63012203F50053DA6070470090005045
S315080150E041F671320121064BDA6303F50052D160AC
S315080150F00022DA634FF48032A3F518339A667047B3
S3150801510000000350013831289ABF024B185C002071
S31508015110704700BF69F3030838B5C2F3062504468C
S3150801512002F0070241B942EA052242F44022063456
S31508015130074B43F8242038BD114628461EF08BFB41
S3150801514002462846FFF7DEFF163442EA0022EFE759
S31508015150008003504FF48032064B5A6603F5E62366
S315080151609B69C3F38512827003F03F021B0B4270E1
S31508015170037070470090005040F6B732064B5B68E3
S315080151809BB293429FBF4FF47A72B3FBF2F3034A81
S31508015190D05C88BF002070470080E00F9BF30308AE
S315080151A0014B986CD96C70470080E00F0120034BC6
S315080151B09B680A3303F01F03984070470080E00F8D
S315080151C070B5054616461C4621B94FF42070FEF700
S315080151D017FF0146402C1BD003D8DCB1202C1BD06D
S315080151E070BD602CFCD1042303FB06F2530803EBC4
S315080151F04113B3FBF2F3094A203B02EAC303AA6847
S3150801520022F06002AA60AA681443AC60EB61E7E782
S315080152100623E9E71023E7E70823E5E7F8FF7F0018
S31508015220012100F5805310B5596040F6AA6341F291
S31508015230050243610023094C8360C365C26000F51A
S3150801524000520361C361C3649464054C8365A0423B
S3150801525004BF03654365516010BD00BFFFFF010030
S3150801526000C0055070B50D46FFF7DAFF012300F5BA
S3150801527080567360AB7C04461BB1836843F0804358
S315080152808360EB7C5BB1244B9C4202BF2A7DA3F56C
S315080152901033C3F8C821E36D43F08003E3652A8A16
S315080152A06B7B20461343EA891343E3602B7BD5E9DD
S315080152B00112FFF785FF6B7D1BB1A36843F48033A9
S315080152C0A360AB7D1BB1A36843F40043A360EB7DE8
S315080152D02A7E1B07120502F4E00203F0E04313439A
S315080152E0A3656B7E9A1E012A4FF0020209D80B4963
S315080152F0032BC1F8202709D10423F3652B786361B1
S3150801530070BD0749012BC1F82027F4E7042204F5EB
S315080153100053DA65F2E700BF00C0055000D003501C
S3150801532000E00350034B5A68D20702D5DA69002A0E
S31508015330F9D1704700800A50054B9A689107FCD449
S315080153405A689207F9D4DA69002AF6D1704700BF7C
S3150801535000800A5008B5FFF7E5FF0222014B1A61E2
S3150801536008BD00BF00800A5008B5FFF7E5FF012216
S31508015370024B03F580514A601A6108BD00800A5044
S3150801538008B5044B5968012903D1FFF7E3FF024B1E
S31508015390596008BD00800A5000A00A5010B5064C95
S315080153A0FFF7CAFF6368012B03D1FFF7E9FFFFF790
S315080153B0C3FF0378E36010BD00800A50B8B94A6894
S315080153C00B7812B1127843EAC2034A7843EA4203D8
S315080153D08A6812B1127843EA82138A7843EA820309
S315080153E0CA6812B1127843EA4223014A93647047A4
S315080153F000800A5008B9014B5964704700900A5059
S3150801540008B9014B5964704700A00A5008B9014B05
S315080154101964704700A00A5010B9024B186C7047FE
S315080154200020704700800A5048B911B1012903D0FC
S315080154307047044BD86C7047024B186D70470020B3
S31508015440704700BF00800A5040B911B1012903D045
S315080154507047034BDA647047014B1A65704700BF02
S3150801546000800A5010B9024B586D704700207047EA
S3150801547000800A5038B50446054D28F0ABF90FCC23
S315080154800FC594E8030085E80300002038BD00BF76
S31508015490F816002047F6FF739A42F0B56FD0022935
S315080154A06FD8394B5B5C012B6BD8384DDF0005EBA8
S315080154B0C30415F83330A178012B13D10025E07800
S315080154C0401AA84202D80844C0B2F0BD431B666818
S315080154D0A0EB530336F913609642D4BF1D4603F178
S315080154E0FF30EEE760680028EFD0B0F9004094423B
S315080154F004DBB0F902409442B8BF144683883D44A0
S31508015500FF2B19BFC8224FF0280CB0F90620B0F9B5
S3150801551008C0A2EB04030CBF0126002693FBFCF38B
S3150801552033446E781BB29E4201DD002B01DA731EED
S315080155301BB24FF47A7C01339BB2071D5D1E2DB257
S315080155404FEAC50E00EBC505EA88AD689E4214FB15
S31508015550025222EAE27202F15C02B2FBFCF204DDBB
S3150801556037F8335001339542E8D200EB0E03988899
S31508015570904228BF1046884238BF0846A4E7FF2054
S31508015580A3E70020A1E700BF9EF30308F816002051
S315080155900229F0B555D82C4B585C012851D82B4C0B
S315080155A004EBC00114F830004B6801280FD1C87804
S315080155B08C78904294BFC4EB0001C4EB0201001B36
S315080155C0CAB28242C8BF002233F91200F0BD002BCD
S315080155D037D08878904202D3B3F90200F6E7CC783F
S315080155E0B3F900009442F1D94C789988013CA1F1AC
S315080155F0FF06714203F10405E4B2714103F10C0798
S31508015600CEB2B44216D805EBC1014FF47A756A4396
S31508015610B1F902404968521A04EBD47102EB6102EE
S3150801562092FBF4F29042D1DBB3F902009042CDDC51
S3150801563010B2CBE737F831C04E1C9445E3D3314657
S31508015640DEE70348C2E700BF9EF30308F816002009
S315080156500080FFFF08B50448FFF70CFFBDE80840C6
S31508015660012028F0BBB800BFA4F30308004870471F
S315080156705E2A00207FB50222084B0949CDE901239C
S315080156804FF00073CDE90313072301A94FF0FF304B
S31508015690059328F0D7F807B05DF804FB006A1800EF
S315080156A00002060008B5B0B14FF480620B4B9A664A
S315080156B01EF050FC4FF098435A6CD202FCD54FF4B9
S315080156C08062586D064B10F470209A6604D0BDE8C6
S315080156D008401EF0F9B8212008BD00BF009000500F
S315080156E000A000502DE9F0418CB08846DDE912761C
S315080156F01D460446002847D0002945D0002F43D02F
S31508015700002E41D013F00F033ED120482049A36053
S31508015710002A08BF0146E361C4E90013404609A906
S315080157201EF0CEF968BB204609991EF00AFC2946E7
S3150801573020461EF006FC6946404600F0DFFA00BB2B
S31508015740694620461EF0E9FB404603A91EF0B7FA52
S31508015750B8B9204603A91EF0E0FB069701272046A3
S3150801576045F0005506A9079708951EF0D6FB204671
S3150801577009A909960A970B951EF0D9FB2046FFF74A
S3150801578091FF0CB0BDE8F0812120FAE70001000481
S31508015790000101042DE9F0418CB0884616461D46E4
S315080157A00446129F00284BD0002949D0002A47D029
S315080157B0002F45D00B68103B102B41D8214A22FAFD
S315080157C003F3D9073CD500231F4A8360C0E90023A8
S315080157D0C36109A940461EF073F970BB20460999B1
S315080157E01EF0AFFB294620461EF0ABFB6946404634
S315080157F000F084FA08BB694620461EF08EFB404637
S3150801580003A91EF05CFAC0B9204603A91EF085FB60
S3150801581006960126204606A945F0005507960895DD
S315080158201EF07BFB094B204609A909970A960B939B
S315080158301EF07DFB2046FFF735FF0CB0BDE8F08171
S315080158402120FAE7010101000000040410000020EC
S31508015850F0B50C4617461E46054695B0002874D085
S31508015860002972D0002A70D0002B6ED0036B0F2B43
S315080158705BD80023364A3846C4E90023A360E361AE
S3150801588011A91EF01DF900285BD1204611991EF0B9
S3150801589058FB296B20460F2984BF01F00F011031EF
S315080158A01EF04FFB384602A900F028FA002848D115
S315080158B0204602A91EF031FB384605A91EF0FFF95C
S315080158C000283ED1204605A91EF027FB0122214BBF
S315080158D0089509920A932B6B05F1100003F00F0145
S315080158E041F000510B900F2B0C920D910E900F92D7
S315080158F043F00052109226D90A9B08A923F00053B7
S3150801590020460A931EF009FB0BA920461EF005FB4B
S315080159100123119612930F4B204611A913931EF0DA
S3150801592006FB2046FFF7BEFE0BE000F120030190BF
S3150801593000930122102339462046FFF7D3FE00289B
S3150801594097D015B0F0BD0EA9DFE72120F9E700BF12
S3150801595000000404100000202DE9F04F9BB00C460E
S3150801596090461F460546DDF89090002800F0B28063
S31508015970002900F0AF80002A00F0AC80002B00F06F
S31508015980A980026B02EB09031B09B3EB121F02F094
S315080159900F0600F0978000234F4A8B60C1E9002368
S315080159A0CB61404617A91EF08BF80346002840F044
S315080159B0858006EB090B204617992BF00F0A1EF076
S315080159C0C0FA514620461EF0BCFA404602A900F02C
S315080159D095F90346002871D1204602A91EF09DFAC1
S315080159E0404605A91EF06BF90346002866D14FF01B
S315080159F00108019005A920461EF08FFA374A20466C
S31508015A0008A90895CDF824800A921EF086FA46F070
S31508015A100051AAEB060605F1100346F000560B9352
S31508015A20CDF830800D910E97CDF83C8010960D99E2
S31508015A30204621F000510D910BA900931EF06DFA35
S31508015A4020460EA91EF069FA019B244A1193AAF170
S31508015A50100343F00053CDF84880139305F1200352
S31508015A601493CDF854801692139B204643F0804335
S31508015A701393139B11A923F0005313931EF057FA9E
S31508015A80204614A91EF053FA144A17A92046179559
S31508015A90CDF8608019921EF04AFA2046FFF702FEF9
S31508015AA0AAEB0B0149440190ABEB0A020098394471
S31508015AB028F0F8FA019B2A6B4A442A6318461BB058
S31508015AC0BDE8F08F10304A463946304428F0EAFAE4
S31508015AD00023F0E72123F1E7030200041000002068
S31508015AE02DE9FF474FF000080E4617460446CDF844
S31508015AF00080002859D022B90025284604B0BDE8FF
S31508015B00F087002951D032F0030902F0030A1FD0A9
S31508015B104FF0E063C0E9003801230191C0F808801D
S31508015B200293C0F81C8049F0005301A903931EF0A3
S31508015B30FEF9494620461EF004FA2046FFF7B2FD53
S31508015B40054628B14A464146304628F0A0FAD4E728
S31508015B50BAF1000FD0D04FF000084FF0E063C4E966
S31508015B6000380123CDF804D00293114B204601A930
S31508015B70C4F80880C4F81C8003931EF0D8F90421E0
S31508015B8020461EF0DEF92046FFF78CFD054608B1D2
S31508015B903A46D8E7009A4E44EB00013522FA03F358
S31508015BA0AA4506F8013BF7D1A6E72125A5E700BFD7
S31508015BB004000020F0B50F4616461D46044693B06C
S31508015BC010B9212013B0F0BD0029FAD0002AF8D067
S31508015BD0002BF6D0002331461A4638461DF015FF2C
S31508015BE00028EFD1304602A91DF0ABFE0028E9D105
S31508015BF0EB68022B0AD039683F48029A81426B69E1
S31508015C0002D01830814270D19A42DAD82B68002B1B
S31508015C10D7D14FF060623846C4E90023A360E36137
S31508015C2001A91DF04DFF0028CCD10199204621F488
S31508015C30F06101911EF085F9694628461DF040FF7D
S31508015C400028BFD1204600991EF07BF9384609A9DC
S31508015C5000F054F80028B5D1204609A91EF05DF9CF
S31508015C6038460CA91EF02BF80028ABD120460CA902
S31508015C701EF053F9EB684BB1284606A900F03EF829
S31508015C8000289FD1204606A91EF047F9304603A9E8
S31508015C901EF015F8002895D1B368DA040CD59B04D3
S31508015CA027D50621F36932691B6801FB03225B00CC
S31508015CB043F0005303920593204603A91EF02DF9DC
S31508015CC028460FA91DF0FBFF00287FF47BAF20466D
S31508015CD00FA91EF02CF903252046FFF7E3FC01283E
S31508015CE07FF470AF013DF7D16CE7B3EB420F8DD26C
S31508015CF067E7292066E700BF200000B090B189B1A7
S31508015D0001234B60C368013B012B08D88269064B06
S31508015D101AB10A6000208B607047044AF9E74FF010
S31508015D200053F7E7212070470800002058050408AA
S31508015D3070B50E46154604468AB000285BD0002980
S31508015D4059D0002A57D0012329461A4630461DF054
S31508015D505CFE00284DD1B36813F4C04F4BD0AB6835
S31508015D6003F4C043B3F5005F45D1254BA060C4E9F0
S31508015D700030E06107A930461DF0A2FE002838D19F
S31508015D80204607991EF0DDF8304601A9FFF7B6FF50
S31508015D9078BB20461EF0C1F8304604A91DF08FFFD6
S31508015DA038BB204604A91EF0B8F8EB681BBBAB68E4
S31508015DB003F4C043B3F5005F1DD1694628461DF0BB
S31508015DC0EBFDB0B9009B6A699A4216D32A6943F07A
S31508015DD0005307920122204607A908920325099331
S31508015DE01EF0A5F82046FFF75DFC012801D1013D0B
S31508015DF0F8D10AB070BD2120FBE71D20F9E700BFE5
S31508015E000000010206289ABF014B185C0020704762
S31508015E106005040830B5154B87B00293144B0390FF
S31508015E20049346F611030D46059300F077F91428F5
S31508015E30044616D168461EF03AF94FF0A8430322E4
S31508015E4002A95A6319601D619A63DA6B9207FCD13C
S31508015E50142C02D168461EF038F900F093F904466D
S31508015E6001E00028E9D0204607B030BD1017002010
S31508015E70040000202DE9F04FB1B005468C469E4638
S31508015E80E8466F4EDDF8EC90409C06F1100A47464D
S31508015E9030687168083603C75645B846F7D13E9B40
S31508015EA003EB0208C8F1000A0AF00F0AB9F1000F5C
S31508015EB000F09D80C9F1000707F00F070121DDF801
S31508015EC0FCB044F00050C4F11006CDF810B00591AD
S31508015ED00690300200F4F85040F021000790B9F11D
S31508015EE0000F40F08680CDF820D047F00050002DF5
S31508015EF000F08480099121210A9041EA07210B913A
S31508015F0042F00050CDF830C03D9B08A94FEA0A2C53
S31508015F100D910E904CF041000F901093002A75D107
S31508015F203E9B119143F0005312933C9B139014939B
S31508015F3010AB1593434B444A169340F61103179336
S31508015F40424B0021002D08BF1346189314AB199331
S31508015F503F4B10221A9311231B931CAB184628F0AA
S31508015F6096F801221D92002246F0804603461E96A7
S31508015F70239205B9EB46102CCDF880B024AE4BD14F
S31508015F8001232246002130462193229428F07FF8E6
S31508015F9020AB002125938F4218BF334647F0804234
S31508015FA026923A9A2CA828922993B2FA82F35B0987
S31508015FB049EA837310222B912A9328F068F8B9F1DC
S31508015FC0000F00D028AED04448F080432CA918A869
S31508015FD02D962E93FFF71EFF30B92DB90346A3421E
S31508015FE025D1002818BF2C2031B0BDE8F08F102725
S31508015FF064E7CDF820E049F0005078E7002C3FF43B
S3150801600079AF04A9099101210A9076E73E9B0CAA6A
S3150801601011924120129388E71022002130462193DC
S31508016020229428F034F8002CB2D10123B1E703F108
S31508016030C0026A4412F8C02C01331043CFE700BFEF
S3150801604067050408100000207C050408800504087B
S3150801605004000020F0B5C0299FB0DDE9244557D0DA
S31508016060B1F5807F04D0802948D029201FB0F0BD22
S3150801607001265CB140F23447029410240396049435
S31508016080212401970594069502AC0AE040F21447CB
S31508016090029410240396049421240594012401975B
S315080160A00695079401251024089409950A92212238
S315080160B00B950C940D92174A0AAD0E92164A0F9536
S315080160C0109242F611021192129313951494159295
S315080160D001AA1692D3B112AB17930423189311236D
S315080160E0199316AB1A901B9340F61103C9081C9114
S315080160F01AA806A91D93FFF78DFEB7E7012614B95D
S315080161004FF48267C4E74FF48667B5E70EABE3E75A
S315080161100F20ABE7780504081000001038B5164BB8
S315080161205A6E42F004025A66D3F8802242F00102FE
S31508016130C3F88022114B5B68C3F3080343B14FF0E0
S31508016140A842D36B13F0430FFBD11424204638BD64
S315080161504FF0A843DC6B14F04304FBD1084D2B68C0
S315080161601BB90421284603F04BFB2B68013343F086
S3150801617000432B60EAE700BF0080005000ED00E015
S3150801618010170020014B00205B68704700ED00E006
S31508016190012300F01F02A0F506200949A0F5506069
S315080161A04009934051F820201A4341F82020054917
S315080161B051F8202022EA030241F82020704700BF47
S315080161C028170020141700200121A0F506230E4ADE
S315080161D0A3F550635B0900F01F00814052F82300C4
S315080161E0014342F823100949D1E90030034488687C
S315080161F00344C868096903445B1802BFC2E900334E
S31508016200C2E90233136170471417002028170020CA
S315080162102DE9F04FA9B003921D4604460822339E84
S31508016220CDE90401414021FA02F34B40980702F1F6
S31508016230080218BF9B00202A1C44F4D18123B4FB11
S31508016240F3F303EBC313E41A734B04F506241B7823
S3150801625004F55064002B3ED1FDF778FB074620B1C3
S315080162606FF0910029B0BDE8F08F0146402208A8D9
S3150801627027F00DFF4022394618A827F008FFDFF856
S31508016280B481DFF8B491C3460BF10F0ACDF800A02B
S31508016290102208A95B46D9F8000027F04AF800221F
S315080162A0014608F1100808AF914246D1CDF800A081
S315080162B05B461022D9F8000018A927F043F84FF0D9
S315080162C0000A834618AFD34541D1544B9845DAD1D4
S315080162D00122514B1A704FF0810A4FF00008DFF87E
S315080162E05CB1A4F50627A7F550635B095BF8232083
S315080162F004F01F01CA40D2073DD4494A52F8233057
S31508016300CB40DB072AD5B8F1000F08BFA046812389
S31508016310A7F6FF47B7FBF3F303EBC313FF1A07F51A
S315080163200624BAF1010A04F55064DAD1039BBBB11C
S31508016330B8F1000F14D0444619E057F8040BCDE91B
S315080163400612FFF725FF079A06990132ACE757F8B7
S31508016350040BFFF739FF0AF1010AB4E7039B13B9E6
S315080163606FF08B007EE7B8F1000F18BF4446349BE7
S3150801637000201C6076E7329B13B10023329A136022
S315080163800EB1002333601023DFF8AC9000932A4640
S3150801639000232146D9F8000014F052F960BB32995E
S315080163A02A68204BC9B99A4206D02146D9F8000075
S315080163B014F0DEF90028D3D1D5E90223DDE904106A
S315080163C0834208BF8A42A2D1039B002BCFD06B68B8
S315080163D0012BCCD16FF0840044E7102032999A4200
S315080163E00860E2D1002EE7D033462146D9F80000ED
S315080163F018AA14F079F948B10B4B9842D5D00B4B32
S315080164009842D2D00A4B9842D6D029E7329A3368B5
S3150801641012689B1A3360CFE77225002000710800C5
S3150801642014170020105D175EFFDF00F011E000F081
S31508016430FEDF00F0006D08008028002028170020E4
S315080164402DE9F04F87B08246894698461646DDF80B
S3150801645040B02AB1002B4FD040F26C739A424ED805
S31508016460BBF1010F4ED8002406F110073946012069
S3150801647005941EF071FD0546002846D021463A4688
S3150801648027F005FE05ABCDE9014300942B46012211
S3150801649050464946FFF7BCFE044680B110F18C0F01
S315080164A008BF6FF08D043A460021284627F0EFFD14
S315080164B028461EF033FD204607B0BDE8F08F144B81
S315080164C0C5E902A92B60C5F804B02EB1324641468A
S315080164D005F1100027F0E6FD059E0E483B462A46C3
S315080164E03146006814F014F818B93046FFF750FE23
S315080164F0D9E76FF09104D6E76FF08604DBE76FF012
S315080165009104D8E76FF08504D5E76FF08C04D2E7DC
S31508016510105D175E802800202DE9F0438DB0814675
S31508016520DDE914780E4615461C469BB1B8F1000FF5
S3150801653005D16FF0860630460DB0BDE8F083002F11
S31508016540F7D0B7F1005FF4D3C3F1005303F5802305
S315080165509F42EED81022002108A827F098FD0022B4
S3150801656007AB029305AB019306AB31460093484648
S3150801657008ABCDE90522FFF74BFE06460028DAD11E
S31508016580059BA4B1AB4215D853EA0504D1D1069BA4
S315080165900B48C8F8004000943A46079900682B440E
S315080165A014F04EF8002818BF6FF09106C3E7AB4206
S315080165B0EDD2BEE75B1B9C4228BF1C46E7E700BF3E
S315080165C08028002030B58DB00C46054610220021E2
S315080165D008A827F05CFD002207AB029305AB0193DF
S315080165E006AB21460093284608ABCDE90522FFF7FD
S315080165F00FFE0446D8B9099B012B1BD0079D104BEA
S315080166002946186814F0B4F8B8B90122A5F5062385
S315080166100C49A3F550635B0905F01F00824051F848
S3150801662023004240284641F82320FFF7CDFD2046A6
S315080166300DB030BD6FF08404F9E76FF09104F6E709
S3150801664080280020281700202DE9F04F93B0044632
S31508016650DDE91E75DDE920689346DDE91C028A46F7
S31508016660DDF8889029B96FF08604204613B0BDE895
S31508016670F08FBBF1000FF6D00FB9002DF3D108B991
S31508016680002AF0D116B9B8F1000FECD1B9F1000F13
S31508016690E9D02C4A934251D12388B3F5105F4DD1E5
S315080166A02022002102A827F0F2FC202200210AA8B4
S315080166B027F0EDFC02A81DF035F910B16FF0920430
S315080166C0D3E720465A4651460AAB00F00FFA04466C
S315080166D00028CAD10A981DF050FD04460028C4D1E5
S315080166E015B9C9F80050C0E7B74224D27B199E42B2
S315080166F021D24545B7D839462A46304627F0ADFC5A
S31508016700374615F00F0AAED1CDE900762B4652462B
S315080167100AA902A8FEF7E6FF07460028E1D0424685
S315080167205146304627F0B3FC012FC9F800A0C5D160
S315080167306FF08B0499E74545E3D994E76FF0850433
S3150801674093E700BF004440042DE9F047C2B00C4668
S3150801675007460021154601A820229A464A9EDDF8D9
S315080167603091DDF8388127F092FC2022002109A812
S3150801677027F08DFC2022002111A827F088FC202271
S31508016780002119A827F083FC0021802222A8219143
S3150801679027F07DFC3CB135B12EB1B9F1000F02D01D
S315080167A0B8F1000F05D16FF08604204642B0BDE866
S315080167B0F0872188628801F4E043B3F5804FF2D06F
S315080167C02C4B2D483B4043F01063834202D06FF0B7
S315080167D08504EAE7D31DBAEBD30F4FEAD307E2D311
S315080167E04D9B9F423FD847F212139942EFD1B2F51A
S315080167F0807FECD1214B4B980993842302300136D3
S3150801680020F0030016937B000D960E9012932046F6
S315080168105246294621AE01AB159600F067F90446A2
S315080168200028C2D10B9B119043F4005319A80B936E
S315080168301DF078F8D0B911AB09AA01A919A8FFF773
S31508016840B9F9054610B14828ADD1C0E73A463146EF
S31508016850484627F027FC2B4673550135842DFBD175
S31508016860C8F80070A1E76FF089049EE76FF09204FB
S315080168709BE700BF0000FFF6000002092000008028
S315080168802DE9F0410D4614461E46C2B010B96FF007
S3150801689086000DE00029FAD0002AF8D0002BF6D0A0
S315080168A0038803F44F42B2F5824F04D06FF0850096
S315080168B042B0BDE8F081DAB2122AF7D123F0FF031C
S315080168C0B3F5E24F27D143883360FBB9E300336060
S315080168D0B3F5807FEAD10023184643492E1921448E
S315080168E011F8014D16F8012D1043121B0CBF4FF07C
S315080168F0FF340024B54203EA040343EA0203EFD155
S315080169000028C4D0002BC2DA0020D1E7DA1DB4EB87
S31508016910D20FDDD0BBE7B3F5824F61D10B78042BDB
S31508016920B5D120220021684627F0B1FB68461CF044
S31508016930F9FF002851D10027842239460DEB0200C0
S31508016940209727F0A4FB202201234FF08808394617
S315080169500DEB0200013C8DF88030013527F097FBDD
S31508016960202239460D9410A8E4000C95640827F0F6
S315080169708EFB20AD2022394618A81495CDF85480EF
S3150801698027F085FBE02CCDE91C58346003D0B4F51B
S31508016990807F7FF47CAF154B0734089310934FF42F
S315080169A000530A934FF48043E408129308AA18ABDC
S315080169B06846640010A91994FFF7FCF83368073391
S315080169C0DB085A0033B10021531E013B297005F13A
S315080169D00105FAD2002897D059E76FF0920067E7C8
S315080169E06FF0960064E700BF840504082000008064
S315080169F0F8B5134642880C460732072A4FEAD201F0
S31508016A0001D0A1426DD146680588C768202218467B
S31508016A10002127F03CFB360A034626B1012E11D088
S31508016A206FF08B00F8BD002C5BD041F20102954254
S31508016A3005D0B5F5885F02D0B5F5905F1BD15C60CE
S31508016A400020EFE7C660002C4BD041F201029542C7
S31508016A500BD15C60B90707F001021FD4002AEFD1F8
S31508016A609A6842F080729A60EAE7B5F5885FF0D0D5
S31508016A70B5F5905FEDD0B5F5105F0AD1182C03D0A6
S31508016A80202C01D0102C2CD1C3E90044002ED7D0DC
S31508016A90E0E705F44F42B2F5824F02D06FF0850068
S31508016AA0C0E7EAB2122AF9D1202CF7D10E4A25F00D
S31508016AB0FF05B5F5E24F1A600CD0B5F5824F10D136
S31508016AC04FF4005217F4705F09D017F4864F04D0BB
S31508016AD09A60E3E74FF48042F4E742F480629A60F1
S31508016AE0D4E76FF086009DE7200000802DE9F0418C
S31508016AF0174600221C4643688CB01B0A80460D4681
S31508016B00009204D0012B56D06FF08B008EE00088DE
S31508016B1020F0FF03B3F5824F15D1B8F802200732EA
S31508016B20D20800921DF035FB002800F0E1800B78B1
S31508016B30042B05D1013FB7EB420F05F1010503D03F
S31508016B406FF0860072E00097009E22463146404665
S31508016B50FFF74EFF002869D1FA1CC4E9030522F0A4
S31508016B6003026261002E00F0A4802022002101A800
S31508016B7027F08DFA3146404601AAFFF739FF00286A
S31508016B8040F097802368019A9A4240F092806368A0
S31508016B90029A9A4240F08D80A368039A9A4240F07D
S31508016BA08880A369079A9A4240F08380E369089A24
S31508016BB09A423BD07DE0032FC2D90B78012B40F0D6
S31508016BC09A80497800294BD0F73908299CD801A31E
S31508016BD053F821F03D6C0108F96B0108096B0108AE
S31508016BE0336C0108096B0108576C0108096B010828
S31508016BF0476C01084F6C01084FF41056F8253F4FB2
S31508016C001C22002102A827F042FA03230197CDE9A5
S31508016C100435039601AA09AD134603CBAB4220609E
S31508016C2061601A4604F10804F6D100200CB0BDE8EB
S31508016C30F08110274FF08076FA25E1E720274FF0FB
S31508016C400076F725DCE7FE252C4F2D4ED8E7FF25E4
S31508016C502A4F2C4ED4E74FF41056FC25274FCFE781
S31508016C602B2F7FF66DAF2022204627F010FA05F16B
S31508016C7010032361AB070DD001AB05F128061A46AF
S31508016C8028686968083503C2B5421346F7D12868EA
S31508016C9001AD10606B68103F2360AB68694663609D
S31508016CA0EB682046A36001236761E3601CF049FE97
S31508016CB028B120220021204627F0E9F940E7B8F853
S31508016CC00030009E03F44F42B2F5824F0ED1DAB27C
S31508016CD0122A0BD123F0FF03B3F5824F06D17300B5
S31508016CE062691C339A42BFF43DAFE2E73346F7E7E0
S31508016CF06FF085009AE76FF0910097E72000008012
S31508016D0000440002004400032DE9F04F8FB0DDF87E
S31508016D10608081460C4692469B461A9FB8F1000F41
S31508016D2005D16FF0860420460FB0BDE8F08F002F1D
S31508016D30F7D00028F5D02022002106A827F0A7F9C8
S31508016D4006A81CF0EFFD10B16FF09204EBE714F4FE
S31508016D507C1FC4F305452AD0102DE2D8199B9D4204
S31508016D6033D81D4B24F47E149C4231D1002302AE44
S31508016D70CDE90233CDE9043352465B4649460096CE
S31508016D8006A8FEF707FD044698B92A463146404645
S31508016D9027F088F9234633550134102CFBD10024FA
S31508016DA03D6006A81CF0C8FD0028BCD0CCE710251C
S31508016DB0D4E7212806D0012814BF6FF092046FF09A
S31508016DC08B04EEE76FF08604EBE76FF08904AAE718
S31508016DD06FF08504A7E700BF0002C00370B50E4631
S31508016DE01446054610B96FF0860070BD0029FAD021
S31508016DF03822002127F04BF9094B24F47E129A42D6
S31508016E000AD13388B3F5105F06D1C4F30543102BB5
S31508016E10E9D800202C60E8E76FF08500E5E700BFB8
S31508016E200002C003F0B50F4616461D4604468BB050
S31508016E3088B302B97BBB2022002102A827F027F9D3
S31508016E4002A81CF06FFD20B16FF0920420460BB02A
S31508016E50F0BD2368114A23F47E13934215D135B93F
S31508016E60002402A81CF068FD0028EFD0ECE73346A1
S31508016E703A46009502A9201DFEF76EFD012807D0A6
S31508016E800028EDD06FF09204EBE76FF08804E8E78D
S31508016E906FF08B04E5E76FF08604D7E70002C003BD
S31508016EA02DE9F0418CB0884616461D460446129FC8
S31508016EB0002840D0002A3ED0002B3CD0002F3AD0E3
S31508016EC0102B036828BF102513F47C1FC3F3054252
S31508016ED002D0954228BF15461A4A23F47E139342D7
S31508016EE02CD12022002104A827F0D1F8002304A8D8
S31508016EF0CDE90033CDE902331CF014FD40B96B46E8
S31508016F00424604A9201DFEF7A3FC30B100233B60CD
S31508016F106FF092000CB0BDE8F08104A81CF00CFDDE
S31508016F2004460028F2D12A466946304627F0BAF8BF
S31508016F3020463D60EEE76FF08600EBE76FF08800CC
S31508016F40E8E700BF0002C0032DE9F0410E461746E7
S31508016F509846044600B3F9B1F2B19822002127F008
S31508016F6096F83146069A04F16000FFF737FF0546A1
S31508016F70A0B92346424639463046FFF7B7FD0546CE
S31508016F8060B97288D208A2F110011029E26503D806
S31508016F900A4BCB40DB0704D46FF086052846BDE8CB
S31508016FA0F08163691C329342F6D304F12003184633
S31508016FB0216927F077F82061F0E700BF0101010098
S31508016FC00023C36001F13803036120230A68436182
S31508016FD08B6D0B4922F47E128A42436003D001F578
S31508016FE080718A4208D1102B01D0182B02D1036077
S31508016FF000207047202BFAD06FF08800704700BF39
S315080170000001C00370B505460C461CF060FB0C2D4B
S31508017010064616D80C2D18D8DFE805F01B1B171BDA
S315080170201B2A171B2E17311734000123194AAB40A7
S3150801703013421DD1132D2AD00D2D06D14FF4F06020
S3150801704022E0A5F10D03122BEFD900232380212479
S3150801705009E08020FDF732FA4FF6FF739842208047
S315080170600CBF0E24002430461CF037FB204670BDA9
S31508017070002323800F24F6E74FF48060EAE74FF4F4
S315080170804060E7E74FF4C060FDF7FAF9E4E74FF42B
S31508017090E060F9E7008023D4B8B1036813F4E07F10
S315080170A003F03F00C3F382120AD0012A0DD1084B1F
S315080170B041B103F58053012282401A6000207047CE
S315080170C0044BF5E703F50053F5E70E20704700BFBB
S315080170D0688000506480005030B58BB06D46774C9F
S315080170E00FCC0FC554F8043B68462B604FF07E63FE
S315080170F093F89C306D46FF2B08BF25238DF8013088
S31508017100FDF71AFB3220FDF755FB0FCC0FC50FCC47
S315080171100FC594E8030085E80300694BD3F84C21B1
S31508017120110340F1AE80A3F5FE431C884FF6FF73A9
S315080171309C4208BF64248DF81940FDF7C7FA044438
S3150801714084F308045F488DF81840FCF781F868460F
S31508017150FDF7C0F93220FDF733FB5B48FDF70AFC62
S315080171605A48FDF77BFC5A4C01213620FCF72EFFC5
S315080171700020FDF72BFBFDF7DBFB236F002023F037
S31508017180070343F003032367236F23F4744343F48C
S31508017190806323671CF033FB4E4BD3F8FC20D201E6
S315080171A073D4D4F8803023F0030343F00103C4F801
S315080171B08030D4F88030C4F88030454CD4F820317A
S315080171C023F0070343F00203C4F82031D4F8283129
S315080171D023F0070343F00203C4F82831D4F88031B9
S315080171E023F0030343F00103C4F88031D4F8403196
S315080171F023F0030343F00203C4F84031D4F86031A5
S3150801720023F0030343F00203C4F86031D4F8403293
S3150801721023F0030343F00203C4F84032D4F80032E2
S3150801722023F0070343F00203C4F80032D4F8083206
S3150801723023F0070343F00203C4F80832D4F8703286
S3150801724023F0030343F00103C4F87032D4F8203263
S3150801725023F0070343F00103C4F82032FDF7F8F8D9
S315080172604FF0E0220020136963F004031361D4F898
S31508017270603223F0070343F00103C4F860320BB010
S3150801728030BDD3F85041E4B255E7D3F8FC2022F0DB
S315080172908072C3F8FC20D4F8802022F0030242F061
S315080172A00102C4F88020D4F88020C4F88020D3F8DD
S315080172B0FC2042F08072C3F8FC207EE7A40504088E
S315080172C00080E00FC017530200B4C404C0EA2101CC
S315080172D00080005000ED00E007B5094B18689A8850
S315080172E09B7900906846ADF804208DF80630FDF7C5
S315080172F049FD0C20FDF77EFD002003B05DF804FB77
S31508017300E005040870B501F019FD0446E8B901F075
S3150801731081FF01F0FDFD4FF4167343430C4A03F553
S31508017320742303F23F23B3FBF2F30A490A480B60BD
S315080173300A230268094D0E68013B45F8046B0E687D
S3150801734013F0FF033244F6D10260204670BD00BF38
S3150801735040420F00701700204017002044170020F4
S31508017360012208B5034B1A701DF0B0FE024B1860D6
S3150801737008BD00BF732500203C17002010B501F099
S31508017380C7FD04461CF099F9844207D91DF0ACFEE5
S3150801739020B10122024B1860024B1A7010BD00BFC2
S315080173A03C17002073250020F8B51F4C2378E3B15C
S315080173B01DF08CFE1D4B1E4D1B68C01A28602B68DC
S315080173C0A3B12B682B6001F0A3FD4FF4167250434D
S315080173D0184A00F5742000F23F20B0FBF2F02B6842
S315080173E02B68834204D900232370F8BD0123E9E7FA
S315080173F01148124E0378296856F82320104F511A5E
S315080174003A68521A29683A6046F823100A2109325D
S31508017410B2FBF1F20B4D0133DBB22A60B3FBF1F299
S3150801742001FB12330370DEE7732500203C170020A9
S315080174306C17002040420F007425002044170020D5
S315080174404017002070170020014B1868704700BFCD
S315080174507017002070B502212C2000F0C9F84FF4EE
S31508017460801204250E4C0F4B0F4E5A6604F5005335
S315080174705E672C205D671E671D6700F0ABF82C2040
S3150801748000F09AF804F580535E675D67A36A23F0F6
S315080174900073A362A36A43F48053A36270BD00BF5D
S315080174A00040005A00900050010000A0064B074A10
S315080174B0996D11F0050F01D0117811B10028F7D196
S315080174C070470120704700BF0040005A752500200B
S315080174D0164B10B51C6F14F0040111D0144A11672C
S315080174E0082191629B6DDA0701D4FFF747FF01F086
S315080174F05DF901F03DF9012001F038FE1DF0F6FDB8
